{
    "contractName": "ConsumerRole",
    "abi": [
        {
            "inputs": [],
            "stateMutability": "nonpayable",
            "type": "constructor"
        },
        {
            "anonymous": false,
            "inputs": [
                {
                    "indexed": true,
                    "internalType": "address",
                    "name": "account",
                    "type": "address"
                }
            ],
            "name": "ConsumerAdded",
            "type": "event"
        },
        {
            "anonymous": false,
            "inputs": [
                {
                    "indexed": true,
                    "internalType": "address",
                    "name": "account",
                    "type": "address"
                }
            ],
            "name": "ConsumerRemoved",
            "type": "event"
        },
        {
            "inputs": [
                {
                    "internalType": "address",
                    "name": "account",
                    "type": "address"
                }
            ],
            "name": "addConsumer",
            "outputs": [],
            "stateMutability": "nonpayable",
            "type": "function"
        },
        {
            "inputs": [
                {
                    "internalType": "address",
                    "name": "account",
                    "type": "address"
                }
            ],
            "name": "isConsumer",
            "outputs": [
                {
                    "internalType": "bool",
                    "name": "",
                    "type": "bool"
                }
            ],
            "stateMutability": "view",
            "type": "function"
        },
        {
            "inputs": [
                {
                    "internalType": "address",
                    "name": "account",
                    "type": "address"
                }
            ],
            "name": "renounceConsumer",
            "outputs": [],
            "stateMutability": "nonpayable",
            "type": "function"
        }
    ],
    "bytecode": "608060405234801561001057600080fd5b5061001a3361001f565b6100c6565b61003781600061006e60201b6101071790919060201c565b6040516001600160a01b038216907f28b26e7a3d20aedbc5f8f2ebf7da671c0491723a2b78f47a097b0e46dee0714290600090a250565b61007882826100a7565b1561008257600080fd5b6001600160a01b0316600090815260209190915260409020805460ff19166001179055565b6001600160a01b03166000908152602091909152604090205460ff1690565b61024e806100d56000396000f3fe608060405234801561001057600080fd5b50600436106100415760003560e01c8063112940f914610046578063834ff7391461006e578063f487d48d146100a8575b600080fd5b61006c6004803603602081101561005c57600080fd5b50356001600160a01b03166100ce565b005b6100946004803603602081101561008457600080fd5b50356001600160a01b03166100ec565b604080519115158252519081900360200190f35b61006c600480360360208110156100be57600080fd5b50356001600160a01b03166100fe565b6100d7336100ec565b6100e057600080fd5b6100e981610140565b50565b60006100f88183610182565b92915050565b6100e9816101a1565b6101118282610182565b1561011b57600080fd5b6001600160a01b0316600090815260209190915260409020805460ff19166001179055565b61014b600082610107565b6040516001600160a01b038216907f28b26e7a3d20aedbc5f8f2ebf7da671c0491723a2b78f47a097b0e46dee0714290600090a250565b6001600160a01b03166000908152602091909152604090205460ff1690565b6101ac6000826101e3565b6040516001600160a01b038216907fe3f5ed5f263f1f01764a96edfc7d025f511ec5f7d180e8816908b78bcf74f09890600090a250565b6101ed8282610182565b6101f657600080fd5b6001600160a01b0316600090815260209190915260409020805460ff1916905556fea26469706673582212201a2a902fbac09fd7cd53ef9f1787541e2aa03baa0112664e2bd755a500328bbe64736f6c63430007000033",
    "sourcePath": "Finance-for-big-data/accesscontrol/Consumer.sol",
    "compiler": {
        "name": "solc",
        "version": "0.7.0+commit.9e61f92b"
    },
    "functionHashes": {
        "addConsumer(address)": "112940f9",
        "isConsumer(address)": "834ff739",
        "renounceConsumer(address)": "f487d48d"
    },
    "gasEstimates": {
        "creation": {
            "codeDepositCost": "118000",
            "executionCost": "infinite",
            "totalCost": "infinite"
        },
        "external": {
            "addConsumer(address)": "infinite",
            "isConsumer(address)": "1203",
            "renounceConsumer(address)": "23308"
        },
        "internal": {
            "_addConsumer(address)": "23080",
            "_removeConsumer(address)": "23071"
        }
    }
}