{
    "contractName": "Farmer",
    "abi": [
        {
            "inputs": [],
            "stateMutability": "nonpayable",
            "type": "constructor"
        },
        {
            "anonymous": false,
            "inputs": [
                {
                    "indexed": true,
                    "internalType": "address",
                    "name": "account",
                    "type": "address"
                }
            ],
            "name": "FarmerAdded",
            "type": "event"
        },
        {
            "anonymous": false,
            "inputs": [
                {
                    "indexed": true,
                    "internalType": "address",
                    "name": "account",
                    "type": "address"
                }
            ],
            "name": "FarmerRemoved",
            "type": "event"
        },
        {
            "inputs": [
                {
                    "internalType": "address",
                    "name": "account",
                    "type": "address"
                }
            ],
            "name": "addFarmer",
            "outputs": [],
            "stateMutability": "nonpayable",
            "type": "function"
        },
        {
            "inputs": [
                {
                    "internalType": "address",
                    "name": "account",
                    "type": "address"
                }
            ],
            "name": "isFarmer",
            "outputs": [
                {
                    "internalType": "bool",
                    "name": "",
                    "type": "bool"
                }
            ],
            "stateMutability": "view",
            "type": "function"
        },
        {
            "inputs": [],
            "name": "renounceFarmer",
            "outputs": [],
            "stateMutability": "nonpayable",
            "type": "function"
        }
    ],
    "bytecode": "608060405234801561001057600080fd5b5061001a3361001f565b6100c6565b61003781600061006e60201b6100eb1790919060201c565b6040516001600160a01b038216907f2e0ded4123377a3c2bc9a26f1717655a129e2f20752924d42e730ec89c83dbd090600090a250565b61007882826100a7565b1561008257600080fd5b6001600160a01b0316600090815260209190915260409020805460ff19166001179055565b6001600160a01b03166000908152602091909152604090205460ff1690565b610232806100d56000396000f3fe608060405234801561001057600080fd5b50600436106100415760003560e01c806380c3f96d1461004657806380fc0ce41461006e578063b942906914610076575b600080fd5b61006c6004803603602081101561005c57600080fd5b50356001600160a01b03166100b0565b005b61006c6100ce565b61009c6004803603602081101561008c57600080fd5b50356001600160a01b03166100d9565b604080519115158252519081900360200190f35b6100b9336100d9565b6100c257600080fd5b6100cb81610124565b50565b6100d733610166565b565b60006100e581836101a8565b92915050565b6100f582826101a8565b156100ff57600080fd5b6001600160a01b0316600090815260209190915260409020805460ff19166001179055565b61012f6000826100eb565b6040516001600160a01b038216907f2e0ded4123377a3c2bc9a26f1717655a129e2f20752924d42e730ec89c83dbd090600090a250565b6101716000826101c7565b6040516001600160a01b038216907fa5e0f060af304ab17dd418c7927e3da3ae7868189bf387aee09ab179ccc572f290600090a250565b6001600160a01b03166000908152602091909152604090205460ff1690565b6101d182826101a8565b6101da57600080fd5b6001600160a01b0316600090815260209190915260409020805460ff1916905556fea26469706673582212201afdfe6531067803ac9928425dcdb950a8ff27c2d49ad2255bcd5b76698458ff64736f6c63430007000033",
    "sourcePath": "/Users/alessiomassini/Desktop/CacaoSupplyChain/Finance-for-big-data/accesscontrol/Farmer.sol",
    "compiler": {
        "name": "solc",
        "version": "0.7.0+commit.9e61f92b"
    },
    "functionHashes": {
        "addFarmer(address)": "80c3f96d",
        "isFarmer(address)": "b9429069",
        "renounceFarmer()": "80fc0ce4"
    },
    "gasEstimates": {
        "creation": {
            "codeDepositCost": "112400",
            "executionCost": "infinite",
            "totalCost": "infinite"
        },
        "external": {
            "addFarmer(address)": "infinite",
            "isFarmer(address)": "1225",
            "renounceFarmer()": "23223"
        },
        "internal": {
            "_addFarmer(address)": "23080",
            "_removeFarmer(address)": "23071"
        }
    }
}