{
    "contractName": "ManufacturerRole",
    "abi": [
        {
            "inputs": [],
            "stateMutability": "nonpayable",
            "type": "constructor"
        },
        {
            "anonymous": false,
            "inputs": [
                {
                    "indexed": true,
                    "internalType": "address",
                    "name": "account",
                    "type": "address"
                }
            ],
            "name": "ManufacturerAdded",
            "type": "event"
        },
        {
            "anonymous": false,
            "inputs": [
                {
                    "indexed": true,
                    "internalType": "address",
                    "name": "account",
                    "type": "address"
                }
            ],
            "name": "ManufacturerRemoved",
            "type": "event"
        },
        {
            "inputs": [
                {
                    "internalType": "address",
                    "name": "account",
                    "type": "address"
                }
            ],
            "name": "addManufacturer",
            "outputs": [],
            "stateMutability": "nonpayable",
            "type": "function"
        },
        {
            "inputs": [
                {
                    "internalType": "address",
                    "name": "account",
                    "type": "address"
                }
            ],
            "name": "isManufacturer",
            "outputs": [
                {
                    "internalType": "bool",
                    "name": "",
                    "type": "bool"
                }
            ],
            "stateMutability": "view",
            "type": "function"
        },
        {
            "inputs": [
                {
                    "internalType": "address",
                    "name": "account",
                    "type": "address"
                }
            ],
            "name": "renounceManufacturer",
            "outputs": [],
            "stateMutability": "nonpayable",
            "type": "function"
        }
    ],
    "bytecode": "608060405234801561001057600080fd5b5061001a3361001f565b6100c6565b61003781600061006e60201b6101071790919060201c565b6040516001600160a01b038216907f561138658ca49a8540dc70dcfe64c9026c1c5b9344642242dd6562970f9c127890600090a250565b61007882826100a7565b1561008257600080fd5b6001600160a01b0316600090815260209190915260409020805460ff19166001179055565b6001600160a01b03166000908152602091909152604090205460ff1690565b61024e806100d56000396000f3fe608060405234801561001057600080fd5b50600436106100415760003560e01c806317d4a491146100465780635f8a5afa14610080578063b8699916146100a8575b600080fd5b61006c6004803603602081101561005c57600080fd5b50356001600160a01b03166100ce565b604080519115158252519081900360200190f35b6100a66004803603602081101561009657600080fd5b50356001600160a01b03166100e0565b005b6100a6600480360360208110156100be57600080fd5b50356001600160a01b03166100fe565b60006100da8183610140565b92915050565b6100e9336100ce565b6100f257600080fd5b6100fb8161015f565b50565b6100fb816101a1565b6101118282610140565b1561011b57600080fd5b6001600160a01b0316600090815260209190915260409020805460ff19166001179055565b6001600160a01b03166000908152602091909152604090205460ff1690565b61016a600082610107565b6040516001600160a01b038216907f561138658ca49a8540dc70dcfe64c9026c1c5b9344642242dd6562970f9c127890600090a250565b6101ac6000826101e3565b6040516001600160a01b038216907f2fed5abf6a80d6dfe30b4895481b2fc5d7dce5f8f7b931832f4a2947d5040c7f90600090a250565b6101ed8282610140565b6101f657600080fd5b6001600160a01b0316600090815260209190915260409020805460ff1916905556fea2646970667358221220b674f0b092c7e70559de6f30ea5fe711255aabde93377568210ca89456f7b71064736f6c63430007000033",
    "sourcePath": "/Users/alessiomassini/Desktop/CacaoSupplyChain/Finance-for-big-data/accesscontrol/Manufacturer.sol",
    "compiler": {
        "name": "solc",
        "version": "0.7.0+commit.9e61f92b"
    },
    "functionHashes": {
        "addManufacturer(address)": "5f8a5afa",
        "isManufacturer(address)": "17d4a491",
        "renounceManufacturer(address)": "b8699916"
    },
    "gasEstimates": {
        "creation": {
            "codeDepositCost": "118000",
            "executionCost": "infinite",
            "totalCost": "infinite"
        },
        "external": {
            "addManufacturer(address)": "infinite",
            "isManufacturer(address)": "1181",
            "renounceManufacturer(address)": "23308"
        },
        "internal": {
            "_addManufacturer(address)": "23080",
            "_removeManufacturer(address)": "23071"
        }
    }
}