{
    "contractName": "Ownable",
    "abi": [
        {
            "inputs": [],
            "stateMutability": "nonpayable",
            "type": "constructor"
        },
        {
            "anonymous": false,
            "inputs": [
                {
                    "indexed": true,
                    "internalType": "address",
                    "name": "oldOwner",
                    "type": "address"
                },
                {
                    "indexed": true,
                    "internalType": "address",
                    "name": "newOwner",
                    "type": "address"
                }
            ],
            "name": "TransferOwnership",
            "type": "event"
        },
        {
            "inputs": [],
            "name": "isOwner",
            "outputs": [
                {
                    "internalType": "bool",
                    "name": "",
                    "type": "bool"
                }
            ],
            "stateMutability": "view",
            "type": "function"
        },
        {
            "inputs": [],
            "name": "ownerLookup",
            "outputs": [
                {
                    "internalType": "address",
                    "name": "",
                    "type": "address"
                }
            ],
            "stateMutability": "view",
            "type": "function"
        },
        {
            "inputs": [],
            "name": "renounceOwnership",
            "outputs": [],
            "stateMutability": "nonpayable",
            "type": "function"
        },
        {
            "inputs": [
                {
                    "internalType": "address",
                    "name": "newOwner",
                    "type": "address"
                }
            ],
            "name": "transferOwnership",
            "outputs": [],
            "stateMutability": "nonpayable",
            "type": "function"
        }
    ],
    "bytecode": "608060405234801561001057600080fd5b50600080546001600160a01b03191633178082556040516001600160a01b039190911691907f5c486528ec3e3f0ea91181cff8116f02bfa350e03b8b6f12e00765adbb5af85c908290a36101fd806100696000396000f3fe608060405234801561001057600080fd5b506004361061004c5760003560e01c8063715018a6146100515780638f32d59b1461005b578063e02e64ea14610077578063f2fde38b1461009b575b600080fd5b6100596100c1565b005b61006361011c565b604080519115158252519081900360200190f35b61007f61012d565b604080516001600160a01b039092168252519081900360200190f35b610059600480360360208110156100b157600080fd5b50356001600160a01b031661013c565b6100c961011c565b6100d257600080fd5b600080546040516001600160a01b03909116907f5c486528ec3e3f0ea91181cff8116f02bfa350e03b8b6f12e00765adbb5af85c908390a3600080546001600160a01b0319169055565b6000546001600160a01b0316331490565b6000546001600160a01b031690565b61014461011c565b61014d57600080fd5b61015681610159565b50565b6001600160a01b03811661016c57600080fd5b600080546040516001600160a01b03808516939216917f5c486528ec3e3f0ea91181cff8116f02bfa350e03b8b6f12e00765adbb5af85c91a3600080546001600160a01b0319166001600160a01b039290921691909117905556fea2646970667358221220392de5f315446fe99edd1e6d8fc708a8ca3b74f3882e4256729e9b14f003422264736f6c63430007000033",
    "sourcePath": "Finance-for-big-data/accesscontrol/Ownable.sol",
    "compiler": {
        "name": "solc",
        "version": "0.7.0+commit.9e61f92b"
    },
    "functionHashes": {
        "isOwner()": "8f32d59b",
        "ownerLookup()": "e02e64ea",
        "renounceOwnership()": "715018a6",
        "transferOwnership(address)": "f2fde38b"
    },
    "gasEstimates": {
        "creation": {
            "codeDepositCost": "101800",
            "executionCost": "22536",
            "totalCost": "124336"
        },
        "external": {
            "isOwner()": "1027",
            "ownerLookup()": "1059",
            "renounceOwnership()": "24170",
            "transferOwnership(address)": "24402"
        },
        "internal": {
            "_transferOwnership(address)": "23276"
        }
    }
}