{
  "contractName": "SupplyChain",
  "abi": [
    {
      "inputs": [],
      "payable": false,
      "stateMutability": "nonpayable",
      "type": "constructor"
    },
    {
      "anonymous": false,
      "inputs": [
        {
          "indexed": true,
          "internalType": "address",
          "name": "account",
          "type": "address"
        }
      ],
      "name": "ConsumerAdded",
      "type": "event"
    },
    {
      "anonymous": false,
      "inputs": [
        {
          "indexed": true,
          "internalType": "address",
          "name": "account",
          "type": "address"
        }
      ],
      "name": "ConsumerRemoved",
      "type": "event"
    },
    {
      "anonymous": false,
      "inputs": [
        {
          "indexed": true,
          "internalType": "address",
          "name": "account",
          "type": "address"
        }
      ],
      "name": "DistributorAdded",
      "type": "event"
    },
    {
      "anonymous": false,
      "inputs": [
        {
          "indexed": true,
          "internalType": "address",
          "name": "account",
          "type": "address"
        }
      ],
      "name": "DistributorRemoved",
      "type": "event"
    },
    {
      "anonymous": false,
      "inputs": [
        {
          "indexed": true,
          "internalType": "address",
          "name": "account",
          "type": "address"
        }
      ],
      "name": "FarmerAdded",
      "type": "event"
    },
    {
      "anonymous": false,
      "inputs": [
        {
          "indexed": true,
          "internalType": "address",
          "name": "account",
          "type": "address"
        }
      ],
      "name": "FarmerRemoved",
      "type": "event"
    },
    {
      "anonymous": false,
      "inputs": [
        {
          "indexed": false,
          "internalType": "uint256",
          "name": "upc",
          "type": "uint256"
        }
      ],
      "name": "ForSaleByDistributor",
      "type": "event"
    },
    {
      "anonymous": false,
      "inputs": [
        {
          "indexed": false,
          "internalType": "uint256",
          "name": "upc",
          "type": "uint256"
        }
      ],
      "name": "ForSaleByFarmer",
      "type": "event"
    },
    {
      "anonymous": false,
      "inputs": [
        {
          "indexed": false,
          "internalType": "uint256",
          "name": "upc",
          "type": "uint256"
        }
      ],
      "name": "ForSaleByManufacturer",
      "type": "event"
    },
    {
      "anonymous": false,
      "inputs": [
        {
          "indexed": false,
          "internalType": "uint256",
          "name": "upc",
          "type": "uint256"
        }
      ],
      "name": "ForSaleByRetailer",
      "type": "event"
    },
    {
      "anonymous": false,
      "inputs": [
        {
          "indexed": true,
          "internalType": "address",
          "name": "account",
          "type": "address"
        }
      ],
      "name": "ManufacturerAdded",
      "type": "event"
    },
    {
      "anonymous": false,
      "inputs": [
        {
          "indexed": true,
          "internalType": "address",
          "name": "account",
          "type": "address"
        }
      ],
      "name": "ManufacturerRemoved",
      "type": "event"
    },
    {
      "anonymous": false,
      "inputs": [
        {
          "indexed": false,
          "internalType": "uint256",
          "name": "upc",
          "type": "uint256"
        }
      ],
      "name": "PackageByDistributor",
      "type": "event"
    },
    {
      "anonymous": false,
      "inputs": [
        {
          "indexed": false,
          "internalType": "uint256",
          "name": "upc",
          "type": "uint256"
        }
      ],
      "name": "PackageByManufacturer",
      "type": "event"
    },
    {
      "anonymous": false,
      "inputs": [
        {
          "indexed": false,
          "internalType": "uint256",
          "name": "upc",
          "type": "uint256"
        }
      ],
      "name": "ProcessedByDistributor",
      "type": "event"
    },
    {
      "anonymous": false,
      "inputs": [
        {
          "indexed": false,
          "internalType": "uint256",
          "name": "upc",
          "type": "uint256"
        }
      ],
      "name": "ProcessedByManufacturer",
      "type": "event"
    },
    {
      "anonymous": false,
      "inputs": [
        {
          "indexed": false,
          "internalType": "uint256",
          "name": "upc",
          "type": "uint256"
        }
      ],
      "name": "ProduceByFarmer",
      "type": "event"
    },
    {
      "anonymous": false,
      "inputs": [
        {
          "indexed": false,
          "internalType": "uint256",
          "name": "upc",
          "type": "uint256"
        }
      ],
      "name": "PurchasedByConsumer",
      "type": "event"
    },
    {
      "anonymous": false,
      "inputs": [
        {
          "indexed": false,
          "internalType": "uint256",
          "name": "upc",
          "type": "uint256"
        }
      ],
      "name": "PurchasedByDistributor",
      "type": "event"
    },
    {
      "anonymous": false,
      "inputs": [
        {
          "indexed": false,
          "internalType": "uint256",
          "name": "upc",
          "type": "uint256"
        }
      ],
      "name": "PurchasedByManufacturer",
      "type": "event"
    },
    {
      "anonymous": false,
      "inputs": [
        {
          "indexed": false,
          "internalType": "uint256",
          "name": "upc",
          "type": "uint256"
        }
      ],
      "name": "PurchasedByRetailer",
      "type": "event"
    },
    {
      "anonymous": false,
      "inputs": [
        {
          "indexed": false,
          "internalType": "uint256",
          "name": "upc",
          "type": "uint256"
        }
      ],
      "name": "ReceivedByDistributor",
      "type": "event"
    },
    {
      "anonymous": false,
      "inputs": [
        {
          "indexed": false,
          "internalType": "uint256",
          "name": "upc",
          "type": "uint256"
        }
      ],
      "name": "ReceivedByManufacturer",
      "type": "event"
    },
    {
      "anonymous": false,
      "inputs": [
        {
          "indexed": false,
          "internalType": "uint256",
          "name": "upc",
          "type": "uint256"
        }
      ],
      "name": "ReceivedByRetailer",
      "type": "event"
    },
    {
      "anonymous": false,
      "inputs": [
        {
          "indexed": true,
          "internalType": "address",
          "name": "account",
          "type": "address"
        }
      ],
      "name": "RetailerAdded",
      "type": "event"
    },
    {
      "anonymous": false,
      "inputs": [
        {
          "indexed": true,
          "internalType": "address",
          "name": "account",
          "type": "address"
        }
      ],
      "name": "RetailerRemoved",
      "type": "event"
    },
    {
      "anonymous": false,
      "inputs": [
        {
          "indexed": false,
          "internalType": "uint256",
          "name": "upc",
          "type": "uint256"
        }
      ],
      "name": "ShippedByDistributor",
      "type": "event"
    },
    {
      "anonymous": false,
      "inputs": [
        {
          "indexed": false,
          "internalType": "uint256",
          "name": "upc",
          "type": "uint256"
        }
      ],
      "name": "ShippedByFarmer",
      "type": "event"
    },
    {
      "anonymous": false,
      "inputs": [
        {
          "indexed": false,
          "internalType": "uint256",
          "name": "upc",
          "type": "uint256"
        }
      ],
      "name": "ShippedByManufacturer",
      "type": "event"
    },
    {
      "anonymous": false,
      "inputs": [
        {
          "indexed": true,
          "internalType": "address",
          "name": "oldOwner",
          "type": "address"
        },
        {
          "indexed": true,
          "internalType": "address",
          "name": "newOwner",
          "type": "address"
        }
      ],
      "name": "TransferOwnership",
      "type": "event"
    },
    {
      "constant": false,
      "inputs": [
        {
          "internalType": "address",
          "name": "account",
          "type": "address"
        }
      ],
      "name": "addConsumer",
      "outputs": [],
      "payable": false,
      "stateMutability": "nonpayable",
      "type": "function"
    },
    {
      "constant": false,
      "inputs": [
        {
          "internalType": "address",
          "name": "account",
          "type": "address"
        }
      ],
      "name": "addDistributor",
      "outputs": [],
      "payable": false,
      "stateMutability": "nonpayable",
      "type": "function"
    },
    {
      "constant": false,
      "inputs": [
        {
          "internalType": "address",
          "name": "account",
          "type": "address"
        }
      ],
      "name": "addFarmer",
      "outputs": [],
      "payable": false,
      "stateMutability": "nonpayable",
      "type": "function"
    },
    {
      "constant": false,
      "inputs": [
        {
          "internalType": "address",
          "name": "account",
          "type": "address"
        }
      ],
      "name": "addManufacturer",
      "outputs": [],
      "payable": false,
      "stateMutability": "nonpayable",
      "type": "function"
    },
    {
      "constant": false,
      "inputs": [
        {
          "internalType": "address",
          "name": "account",
          "type": "address"
        }
      ],
      "name": "addRetailer",
      "outputs": [],
      "payable": false,
      "stateMutability": "nonpayable",
      "type": "function"
    },
    {
      "constant": true,
      "inputs": [
        {
          "internalType": "address",
          "name": "account",
          "type": "address"
        }
      ],
      "name": "isConsumer",
      "outputs": [
        {
          "internalType": "bool",
          "name": "",
          "type": "bool"
        }
      ],
      "payable": false,
      "stateMutability": "view",
      "type": "function"
    },
    {
      "constant": true,
      "inputs": [
        {
          "internalType": "address",
          "name": "account",
          "type": "address"
        }
      ],
      "name": "isDistributor",
      "outputs": [
        {
          "internalType": "bool",
          "name": "",
          "type": "bool"
        }
      ],
      "payable": false,
      "stateMutability": "view",
      "type": "function"
    },
    {
      "constant": true,
      "inputs": [
        {
          "internalType": "address",
          "name": "account",
          "type": "address"
        }
      ],
      "name": "isFarmer",
      "outputs": [
        {
          "internalType": "bool",
          "name": "",
          "type": "bool"
        }
      ],
      "payable": false,
      "stateMutability": "view",
      "type": "function"
    },
    {
      "constant": true,
      "inputs": [
        {
          "internalType": "address",
          "name": "account",
          "type": "address"
        }
      ],
      "name": "isManufacturer",
      "outputs": [
        {
          "internalType": "bool",
          "name": "",
          "type": "bool"
        }
      ],
      "payable": false,
      "stateMutability": "view",
      "type": "function"
    },
    {
      "constant": true,
      "inputs": [],
      "name": "isOwner",
      "outputs": [
        {
          "internalType": "bool",
          "name": "",
          "type": "bool"
        }
      ],
      "payable": false,
      "stateMutability": "view",
      "type": "function"
    },
    {
      "constant": true,
      "inputs": [
        {
          "internalType": "address",
          "name": "account",
          "type": "address"
        }
      ],
      "name": "isRetailer",
      "outputs": [
        {
          "internalType": "bool",
          "name": "",
          "type": "bool"
        }
      ],
      "payable": false,
      "stateMutability": "view",
      "type": "function"
    },
    {
      "constant": true,
      "inputs": [],
      "name": "ownerLookup",
      "outputs": [
        {
          "internalType": "address",
          "name": "",
          "type": "address"
        }
      ],
      "payable": false,
      "stateMutability": "view",
      "type": "function"
    },
    {
      "constant": false,
      "inputs": [
        {
          "internalType": "address",
          "name": "account",
          "type": "address"
        }
      ],
      "name": "renounceConsumer",
      "outputs": [],
      "payable": false,
      "stateMutability": "nonpayable",
      "type": "function"
    },
    {
      "constant": false,
      "inputs": [],
      "name": "renounceDistributor",
      "outputs": [],
      "payable": false,
      "stateMutability": "nonpayable",
      "type": "function"
    },
    {
      "constant": false,
      "inputs": [],
      "name": "renounceFarmer",
      "outputs": [],
      "payable": false,
      "stateMutability": "nonpayable",
      "type": "function"
    },
    {
      "constant": false,
      "inputs": [
        {
          "internalType": "address",
          "name": "account",
          "type": "address"
        }
      ],
      "name": "renounceManufacturer",
      "outputs": [],
      "payable": false,
      "stateMutability": "nonpayable",
      "type": "function"
    },
    {
      "constant": false,
      "inputs": [],
      "name": "renounceOwnership",
      "outputs": [],
      "payable": false,
      "stateMutability": "nonpayable",
      "type": "function"
    },
    {
      "constant": false,
      "inputs": [],
      "name": "renounceRetailer",
      "outputs": [],
      "payable": false,
      "stateMutability": "nonpayable",
      "type": "function"
    },
    {
      "constant": false,
      "inputs": [
        {
          "internalType": "address",
          "name": "newOwner",
          "type": "address"
        }
      ],
      "name": "transferOwnership",
      "outputs": [],
      "payable": false,
      "stateMutability": "nonpayable",
      "type": "function"
    },
    {
      "constant": false,
      "inputs": [
        {
          "internalType": "uint256",
          "name": "_upc",
          "type": "uint256"
        }
      ],
      "name": "purchaseItemByDistributor",
      "outputs": [],
      "payable": true,
      "stateMutability": "payable",
      "type": "function"
    },
    {
      "constant": false,
      "inputs": [
        {
          "internalType": "uint256",
          "name": "_upc",
          "type": "uint256"
        }
      ],
      "name": "shippedItemByFarmer",
      "outputs": [],
      "payable": true,
      "stateMutability": "payable",
      "type": "function"
    },
    {
      "constant": false,
      "inputs": [
        {
          "internalType": "uint256",
          "name": "_upc",
          "type": "uint256"
        }
      ],
      "name": "purchaseItemByManufacturer",
      "outputs": [],
      "payable": true,
      "stateMutability": "payable",
      "type": "function"
    },
    {
      "constant": false,
      "inputs": [
        {
          "internalType": "uint256",
          "name": "_upc",
          "type": "uint256"
        }
      ],
      "name": "shippedItemByDistributor",
      "outputs": [],
      "payable": true,
      "stateMutability": "payable",
      "type": "function"
    },
    {
      "constant": false,
      "inputs": [
        {
          "internalType": "uint256",
          "name": "_upc",
          "type": "uint256"
        }
      ],
      "name": "purchaseItemByRetailer",
      "outputs": [],
      "payable": true,
      "stateMutability": "payable",
      "type": "function"
    },
    {
      "constant": false,
      "inputs": [
        {
          "internalType": "uint256",
          "name": "_upc",
          "type": "uint256"
        }
      ],
      "name": "shippedItemByManufacturer",
      "outputs": [],
      "payable": true,
      "stateMutability": "payable",
      "type": "function"
    },
    {
      "constant": false,
      "inputs": [
        {
          "internalType": "uint256",
          "name": "_upc",
          "type": "uint256"
        }
      ],
      "name": "purchaseItemByConsumer",
      "outputs": [],
      "payable": true,
      "stateMutability": "payable",
      "type": "function"
    }
  ],
  "bytecode": "0x60806040523480156200001157600080fd5b50336000806101000a81548173ffffffffffffffffffffffffffffffffffffffff021916908373ffffffffffffffffffffffffffffffffffffffff1602179055506000809054906101000a900473ffffffffffffffffffffffffffffffffffffffff1673ffffffffffffffffffffffffffffffffffffffff16600073ffffffffffffffffffffffffffffffffffffffff167f5c486528ec3e3f0ea91181cff8116f02bfa350e03b8b6f12e00765adbb5af85c60405160405180910390a3620000df336200017a60201b60201c565b620000f033620001db60201b60201c565b62000101336200023c60201b60201c565b62000112336200029d60201b60201c565b6200012333620002fe60201b60201c565b33600660006101000a81548173ffffffffffffffffffffffffffffffffffffffff021916908373ffffffffffffffffffffffffffffffffffffffff1602179055506001600881905550600160078190555062000433565b620001958160016200035f60201b620021ea1790919060201c565b8073ffffffffffffffffffffffffffffffffffffffff167f2e0ded4123377a3c2bc9a26f1717655a129e2f20752924d42e730ec89c83dbd060405160405180910390a250565b620001f68160026200035f60201b620021ea1790919060201c565b8073ffffffffffffffffffffffffffffffffffffffff167fddbf200aa634dc3fb81cfd68583dd1040d1c751d335e1d86b631bde3e977fea860405160405180910390a250565b620002578160036200035f60201b620021ea1790919060201c565b8073ffffffffffffffffffffffffffffffffffffffff167f561138658ca49a8540dc70dcfe64c9026c1c5b9344642242dd6562970f9c127860405160405180910390a250565b620002b88160046200035f60201b620021ea1790919060201c565b8073ffffffffffffffffffffffffffffffffffffffff167f71ae26cad02663e3d92efd6ec56031a80d74a20c0ab4183faa8bf262261c9baa60405160405180910390a250565b620003198160056200035f60201b620021ea1790919060201c565b8073ffffffffffffffffffffffffffffffffffffffff167f28b26e7a3d20aedbc5f8f2ebf7da671c0491723a2b78f47a097b0e46dee0714260405160405180910390a250565b620003718282620003da60201b60201c565b156200037c57600080fd5b60018260000160008373ffffffffffffffffffffffffffffffffffffffff1673ffffffffffffffffffffffffffffffffffffffff16815260200190815260200160002060006101000a81548160ff0219169083151502179055505050565b60008260000160008373ffffffffffffffffffffffffffffffffffffffff1673ffffffffffffffffffffffffffffffffffffffff16815260200190815260200160002060009054906101000a900460ff16905092915050565b61230280620004436000396000f3fe6080604052600436106101815760003560e01c80638ec4f505116100d1578063b9a40d041161008a578063e02e64ea11610064578063e02e64ea14610718578063f2fde38b1461076f578063f487d48d146107c0578063fdcdc06f1461081157610181565b8063b9a40d04146106a5578063db0e6a2f146106d3578063df74dc3a146106ea57610181565b80638ec4f505146104d45780638f0c86fa146105255780638f32d59b1461058e578063a3aca62b146105bd578063b8699916146105eb578063b94290691461063c57610181565b8063715018a61161013e57806380c3f96d1161011857806380c3f96d146103d557806380fc0ce41461042657806382e831ec1461043d578063834ff7391461046b57610181565b8063715018a61461033f57806371f3ff90146103565780637250e2241461038457610181565b8063112940f91461018657806317d4a491146101d757806326d529b4146102405780635da09b881461026e5780635f8a5afa146102d7578063644241db14610328575b600080fd5b34801561019257600080fd5b506101d5600480360360208110156101a957600080fd5b81019080803573ffffffffffffffffffffffffffffffffffffffff16906020019092919050505061083f565b005b3480156101e357600080fd5b50610226600480360360208110156101fa57600080fd5b81019080803573ffffffffffffffffffffffffffffffffffffffff16906020019092919050505061085d565b604051808215151515815260200191505060405180910390f35b61026c6004803603602081101561025657600080fd5b810190808035906020019092919050505061087a565b005b34801561027a57600080fd5b506102bd6004803603602081101561029157600080fd5b81019080803573ffffffffffffffffffffffffffffffffffffffff169060200190929190505050610ba9565b604051808215151515815260200191505060405180910390f35b3480156102e357600080fd5b50610326600480360360208110156102fa57600080fd5b81019080803573ffffffffffffffffffffffffffffffffffffffff169060200190929190505050610bc6565b005b34801561033457600080fd5b5061033d610be4565b005b34801561034b57600080fd5b50610354610bef565b005b6103826004803603602081101561036c57600080fd5b8101908080359060200190929190505050610cbf565b005b34801561039057600080fd5b506103d3600480360360208110156103a757600080fd5b81019080803573ffffffffffffffffffffffffffffffffffffffff169060200190929190505050610e64565b005b3480156103e157600080fd5b50610424600480360360208110156103f857600080fd5b81019080803573ffffffffffffffffffffffffffffffffffffffff169060200190929190505050610e82565b005b34801561043257600080fd5b5061043b610ea0565b005b6104696004803603602081101561045357600080fd5b8101908080359060200190929190505050610eab565b005b34801561047757600080fd5b506104ba6004803603602081101561048e57600080fd5b81019080803573ffffffffffffffffffffffffffffffffffffffff16906020019092919050505061104f565b604051808215151515815260200191505060405180910390f35b3480156104e057600080fd5b50610523600480360360208110156104f757600080fd5b81019080803573ffffffffffffffffffffffffffffffffffffffff16906020019092919050505061106c565b005b34801561053157600080fd5b506105746004803603602081101561054857600080fd5b81019080803573ffffffffffffffffffffffffffffffffffffffff16906020019092919050505061108a565b604051808215151515815260200191505060405180910390f35b34801561059a57600080fd5b506105a36110a7565b604051808215151515815260200191505060405180910390f35b6105e9600480360360208110156105d357600080fd5b81019080803590602001909291905050506110fe565b005b3480156105f757600080fd5b5061063a6004803603602081101561060e57600080fd5b81019080803573ffffffffffffffffffffffffffffffffffffffff16906020019092919050505061142d565b005b34801561064857600080fd5b5061068b6004803603602081101561065f57600080fd5b81019080803573ffffffffffffffffffffffffffffffffffffffff169060200190929190505050611439565b604051808215151515815260200191505060405180910390f35b6106d1600480360360208110156106bb57600080fd5b8101908080359060200190929190505050611456565b005b3480156106df57600080fd5b506106e86115fb565b005b6107166004803603602081101561070057600080fd5b8101908080359060200190929190505050611606565b005b34801561072457600080fd5b5061072d61198a565b604051808273ffffffffffffffffffffffffffffffffffffffff1673ffffffffffffffffffffffffffffffffffffffff16815260200191505060405180910390f35b34801561077b57600080fd5b506107be6004803603602081101561079257600080fd5b81019080803573ffffffffffffffffffffffffffffffffffffffff1690602001909291905050506119b3565b005b3480156107cc57600080fd5b5061080f600480360360208110156107e357600080fd5b81019080803573ffffffffffffffffffffffffffffffffffffffff1690602001909291905050506119d0565b005b61083d6004803603602081101561082757600080fd5b81019080803590602001909291905050506119dc565b005b6108483361104f565b61085157600080fd5b61085a81611d0b565b50565b6000610873826003611d6590919063ffffffff16565b9050919050565b61088333610ba9565b61088c57600080fd5b80600d601281111561089a57fe5b6009600083815260200190815260200160002060050160009054906101000a900460ff1660128111156108c957fe5b146108d357600080fd5b600960008381526020019081526020016000206006015480341015610960576040517f08c379a00000000000000000000000000000000000000000000000000000000081526004018080602001828103825260158152602001807f4e6f7420656e6f756768206d6f6e65792070616964000000000000000000000081525060200191505060405180910390fd5b8233600060096000848152602001908152602001600020600601549050600081340390508273ffffffffffffffffffffffffffffffffffffffff166108fc829081150290604051600060405180830381858888f193505050501580156109ca573d6000803e3d6000fd5b506000610a0c600960008a815260200190815260200160002060070160009054906101000a900473ffffffffffffffffffffffffffffffffffffffff16611dbe565b90508073ffffffffffffffffffffffffffffffffffffffff166108fc600960008b8152602001908152602001600020600601549081150290604051600060405180830381858888f19350505050158015610a6a573d6000803e3d6000fd5b5033600960008a815260200190815260200160002060020160006101000a81548173ffffffffffffffffffffffffffffffffffffffff021916908373ffffffffffffffffffffffffffffffffffffffff16021790555033600960008a815260200190815260200160002060090160006101000a81548173ffffffffffffffffffffffffffffffffffffffff021916908373ffffffffffffffffffffffffffffffffffffffff160217905550600e600960008a815260200190815260200160002060050160006101000a81548160ff02191690836012811115610b4857fe5b021790555043600a60008a8152602001908152602001600020600201819055507faa7352d10146444c3afd9bd7fb0ae56b0a85e81139536bbec3f1f660fddd7be1886040518082815260200191505060405180910390a15050505050505050565b6000610bbf826004611d6590919063ffffffff16565b9050919050565b610bcf3361085d565b610bd857600080fd5b610be181611dc8565b50565b610bed33611e22565b565b610bf76110a7565b610c0057600080fd5b600073ffffffffffffffffffffffffffffffffffffffff166000809054906101000a900473ffffffffffffffffffffffffffffffffffffffff1673ffffffffffffffffffffffffffffffffffffffff167f5c486528ec3e3f0ea91181cff8116f02bfa350e03b8b6f12e00765adbb5af85c60405160405180910390a360008060006101000a81548173ffffffffffffffffffffffffffffffffffffffff021916908373ffffffffffffffffffffffffffffffffffffffff160217905550565b610cc833611439565b610cd157600080fd5b8060026012811115610cdf57fe5b6009600083815260200190815260200160002060050160009054906101000a900460ff166012811115610d0e57fe5b14610d1857600080fd5b6009600083815260200190815260200160002060030160009054906101000a900473ffffffffffffffffffffffffffffffffffffffff168073ffffffffffffffffffffffffffffffffffffffff163373ffffffffffffffffffffffffffffffffffffffff1614610df0576040517f08c379a00000000000000000000000000000000000000000000000000000000081526004018080602001828103825260208152602001807f4f6e6c7920776974682076616c6964206164647265737320706f737369626c6581525060200191505060405180910390fd5b60036009600085815260200190815260200160002060050160006101000a81548160ff02191690836012811115610e2357fe5b02179055507fe6ae062d51064ae2a5a31a72fcb1bee1d343fdc6bddc1d3dfce658ece4f03212836040518082815260200191505060405180910390a1505050565b610e6d3361108a565b610e7657600080fd5b610e7f81611e7c565b50565b610e8b33611439565b610e9457600080fd5b610e9d81611ed6565b50565b610ea933611f30565b565b610eb43361108a565b610ebd57600080fd5b8060086012811115610ecb57fe5b6009600083815260200190815260200160002060050160009054906101000a900460ff166012811115610efa57fe5b14610f0457600080fd5b6009600083815260200190815260200160002060020160009054906101000a900473ffffffffffffffffffffffffffffffffffffffff168073ffffffffffffffffffffffffffffffffffffffff163373ffffffffffffffffffffffffffffffffffffffff1614610fdc576040517f08c379a00000000000000000000000000000000000000000000000000000000081526004018080602001828103825260208152602001807f4f6e6c7920776974682076616c6964206164647265737320706f737369626c6581525060200191505060405180910390fd5b600980600085815260200190815260200160002060050160006101000a81548160ff0219169083601281111561100e57fe5b02179055507fc5c33776d405e5686e4386e1ef31a65cf6195e4f7ceb8808ab64d05b6ccbc2a6836040518082815260200191505060405180910390a1505050565b6000611065826005611d6590919063ffffffff16565b9050919050565b61107533610ba9565b61107e57600080fd5b61108781611f8a565b50565b60006110a0826002611d6590919063ffffffff16565b9050919050565b60008060009054906101000a900473ffffffffffffffffffffffffffffffffffffffff1673ffffffffffffffffffffffffffffffffffffffff163373ffffffffffffffffffffffffffffffffffffffff1614905090565b6111073361085d565b61111057600080fd5b806007601281111561111e57fe5b6009600083815260200190815260200160002060050160009054906101000a900460ff16601281111561114d57fe5b1461115757600080fd5b6009600083815260200190815260200160002060060154803410156111e4576040517f08c379a00000000000000000000000000000000000000000000000000000000081526004018080602001828103825260158152602001807f4e6f7420656e6f756768206d6f6e65792070616964000000000000000000000081525060200191505060405180910390fd5b8233600060096000848152602001908152602001600020600601549050600081340390508273ffffffffffffffffffffffffffffffffffffffff166108fc829081150290604051600060405180830381858888f1935050505015801561124e573d6000803e3d6000fd5b506000611290600960008a815260200190815260200160002060080160009054906101000a900473ffffffffffffffffffffffffffffffffffffffff16611dbe565b90508073ffffffffffffffffffffffffffffffffffffffff166108fc600960008b8152602001908152602001600020600601549081150290604051600060405180830381858888f193505050501580156112ee573d6000803e3d6000fd5b5033600960008a815260200190815260200160002060020160006101000a81548173ffffffffffffffffffffffffffffffffffffffff021916908373ffffffffffffffffffffffffffffffffffffffff16021790555033600960008a815260200190815260200160002060080160006101000a81548173ffffffffffffffffffffffffffffffffffffffff021916908373ffffffffffffffffffffffffffffffffffffffff1602179055506008600960008a815260200190815260200160002060050160006101000a81548160ff021916908360128111156113cc57fe5b021790555043600a60008a8152602001908152602001600020600101819055507fb440ff508b4714f01c34e25032a6e23377f47c0f9c56d4fcdd11bb2b6cd59747886040518082815260200191505060405180910390a15050505050505050565b61143681611fe4565b50565b600061144f826001611d6590919063ffffffff16565b9050919050565b61145f3361085d565b61146857600080fd5b80600e601281111561147657fe5b6009600083815260200190815260200160002060050160009054906101000a900460ff1660128111156114a557fe5b146114af57600080fd5b6009600083815260200190815260200160002060020160009054906101000a900473ffffffffffffffffffffffffffffffffffffffff168073ffffffffffffffffffffffffffffffffffffffff163373ffffffffffffffffffffffffffffffffffffffff1614611587576040517f08c379a00000000000000000000000000000000000000000000000000000000081526004018080602001828103825260208152602001807f4f6e6c7920776974682076616c6964206164647265737320706f737369626c6581525060200191505060405180910390fd5b600f6009600085815260200190815260200160002060050160006101000a81548160ff021916908360128111156115ba57fe5b02179055507f25727bef8a186dd95a062151451f2d651551b53124c18208d7653b1217ae31ba836040518082815260200191505060405180910390a1505050565b6116043361203e565b565b61160f3361104f565b61161857600080fd5b806011601281111561162657fe5b6009600083815260200190815260200160002060050160009054906101000a900460ff16601281111561165557fe5b1461165f57600080fd5b6009600083815260200190815260200160002060060154803410156116ec576040517f08c379a00000000000000000000000000000000000000000000000000000000081526004018080602001828103825260158152602001807f4e6f7420656e6f756768206d6f6e65792070616964000000000000000000000081525060200191505060405180910390fd5b8233600060096000848152602001908152602001600020600601549050600081340390508273ffffffffffffffffffffffffffffffffffffffff166108fc829081150290604051600060405180830381858888f19350505050158015611756573d6000803e3d6000fd5b503360096000898152602001908152602001600020600a0160006101000a81548173ffffffffffffffffffffffffffffffffffffffff021916908373ffffffffffffffffffffffffffffffffffffffff16021790555060006117ed600960008a815260200190815260200160002060090160009054906101000a900473ffffffffffffffffffffffffffffffffffffffff16611dbe565b90508073ffffffffffffffffffffffffffffffffffffffff166108fc600960008b8152602001908152602001600020600601549081150290604051600060405180830381858888f1935050505015801561184b573d6000803e3d6000fd5b5033600960008a815260200190815260200160002060020160006101000a81548173ffffffffffffffffffffffffffffffffffffffff021916908373ffffffffffffffffffffffffffffffffffffffff16021790555033600960008a8152602001908152602001600020600a0160006101000a81548173ffffffffffffffffffffffffffffffffffffffff021916908373ffffffffffffffffffffffffffffffffffffffff1602179055506012600960008a815260200190815260200160002060050160006101000a81548160ff0219169083601281111561192957fe5b021790555043600a60008a8152602001908152602001600020600301819055507fc7e94446a942a0541d0224ece380a730c85f03db7188fca783225da9255929f7886040518082815260200191505060405180910390a15050505050505050565b60008060009054906101000a900473ffffffffffffffffffffffffffffffffffffffff16905090565b6119bb6110a7565b6119c457600080fd5b6119cd81612098565b50565b6119d981612190565b50565b6119e53361108a565b6119ee57600080fd5b80600160128111156119fc57fe5b6009600083815260200190815260200160002060050160009054906101000a900460ff166012811115611a2b57fe5b14611a3557600080fd5b600960008381526020019081526020016000206006015480341015611ac2576040517f08c379a00000000000000000000000000000000000000000000000000000000081526004018080602001828103825260158152602001807f4e6f7420656e6f756768206d6f6e65792070616964000000000000000000000081525060200191505060405180910390fd5b8233600060096000848152602001908152602001600020600601549050600081340390508273ffffffffffffffffffffffffffffffffffffffff166108fc829081150290604051600060405180830381858888f19350505050158015611b2c573d6000803e3d6000fd5b506000611b6e600960008a815260200190815260200160002060030160009054906101000a900473ffffffffffffffffffffffffffffffffffffffff16611dbe565b90508073ffffffffffffffffffffffffffffffffffffffff166108fc600960008b8152602001908152602001600020600601549081150290604051600060405180830381858888f19350505050158015611bcc573d6000803e3d6000fd5b5033600960008a815260200190815260200160002060020160006101000a81548173ffffffffffffffffffffffffffffffffffffffff021916908373ffffffffffffffffffffffffffffffffffffffff16021790555033600960008a815260200190815260200160002060070160006101000a81548173ffffffffffffffffffffffffffffffffffffffff021916908373ffffffffffffffffffffffffffffffffffffffff1602179055506002600960008a815260200190815260200160002060050160006101000a81548160ff02191690836012811115611caa57fe5b021790555043600a60008a8152602001908152602001600020600001819055507facd9402b9f9e8c15fa7c1819f8393ca56eb61316cc354fc6ac2150aed3ce7931886040518082815260200191505060405180910390a15050505050505050565b611d1f8160056121ea90919063ffffffff16565b8073ffffffffffffffffffffffffffffffffffffffff167f28b26e7a3d20aedbc5f8f2ebf7da671c0491723a2b78f47a097b0e46dee0714260405160405180910390a250565b60008260000160008373ffffffffffffffffffffffffffffffffffffffff1673ffffffffffffffffffffffffffffffffffffffff16815260200190815260200160002060009054906101000a900460ff16905092915050565b6000819050919050565b611ddc8160036121ea90919063ffffffff16565b8073ffffffffffffffffffffffffffffffffffffffff167f561138658ca49a8540dc70dcfe64c9026c1c5b9344642242dd6562970f9c127860405160405180910390a250565b611e3681600261225c90919063ffffffff16565b8073ffffffffffffffffffffffffffffffffffffffff167f126174f6cf49c81cdb4a9214c6b8f037bef55b4ec31e4fc776cea2a1c8a88d5960405160405180910390a250565b611e908160026121ea90919063ffffffff16565b8073ffffffffffffffffffffffffffffffffffffffff167fddbf200aa634dc3fb81cfd68583dd1040d1c751d335e1d86b631bde3e977fea860405160405180910390a250565b611eea8160016121ea90919063ffffffff16565b8073ffffffffffffffffffffffffffffffffffffffff167f2e0ded4123377a3c2bc9a26f1717655a129e2f20752924d42e730ec89c83dbd060405160405180910390a250565b611f4481600161225c90919063ffffffff16565b8073ffffffffffffffffffffffffffffffffffffffff167fa5e0f060af304ab17dd418c7927e3da3ae7868189bf387aee09ab179ccc572f260405160405180910390a250565b611f9e8160046121ea90919063ffffffff16565b8073ffffffffffffffffffffffffffffffffffffffff167f71ae26cad02663e3d92efd6ec56031a80d74a20c0ab4183faa8bf262261c9baa60405160405180910390a250565b611ff881600361225c90919063ffffffff16565b8073ffffffffffffffffffffffffffffffffffffffff167f2fed5abf6a80d6dfe30b4895481b2fc5d7dce5f8f7b931832f4a2947d5040c7f60405160405180910390a250565b61205281600461225c90919063ffffffff16565b8073ffffffffffffffffffffffffffffffffffffffff167fdb7176e79cffef81cb01767dd0447a0b24bb72ca9778d4b245581086b2a7e6db60405160405180910390a250565b600073ffffffffffffffffffffffffffffffffffffffff168173ffffffffffffffffffffffffffffffffffffffff1614156120d257600080fd5b8073ffffffffffffffffffffffffffffffffffffffff166000809054906101000a900473ffffffffffffffffffffffffffffffffffffffff1673ffffffffffffffffffffffffffffffffffffffff167f5c486528ec3e3f0ea91181cff8116f02bfa350e03b8b6f12e00765adbb5af85c60405160405180910390a3806000806101000a81548173ffffffffffffffffffffffffffffffffffffffff021916908373ffffffffffffffffffffffffffffffffffffffff16021790555050565b6121a481600561225c90919063ffffffff16565b8073ffffffffffffffffffffffffffffffffffffffff167fe3f5ed5f263f1f01764a96edfc7d025f511ec5f7d180e8816908b78bcf74f09860405160405180910390a250565b6121f48282611d65565b156121fe57600080fd5b60018260000160008373ffffffffffffffffffffffffffffffffffffffff1673ffffffffffffffffffffffffffffffffffffffff16815260200190815260200160002060006101000a81548160ff0219169083151502179055505050565b6122668282611d65565b61226f57600080fd5b60008260000160008373ffffffffffffffffffffffffffffffffffffffff1673ffffffffffffffffffffffffffffffffffffffff16815260200190815260200160002060006101000a81548160ff021916908315150217905550505056fea265627a7a723158204459bc4df6f673e8e4fa2b43b4e6a1e30d7cc9998b2b0b91c96d1ed8352ef75564736f6c63430005100032",
  "source": "// SPDX-License-Identifier: UNLICENSED\r\n\r\npragma solidity >=0.4.24;\r\n\r\n// inherit contracts \r\nimport '../accesscontrol/Ownable.sol';\r\nimport '../accesscontrol/Farmer.sol';\r\nimport '../accesscontrol/Distributor.sol';\r\nimport '../accesscontrol/Manufacturer.sol';\r\nimport '../accesscontrol/Retailer.sol';\r\nimport '../accesscontrol/Consumer.sol'; \r\n\r\n\r\n// Contract: Supply Chain\r\ncontract SupplyChain is Ownable, Farmer, DistributorRole, ManufacturerRole, RetailerRole, ConsumerRole {\r\n    // owner\r\n    address owner; \r\n\r\n    // Universal Product Code \r\n    uint upc;\r\n\r\n    // Stock Keeping Unit\r\n    uint sku;\r\n\r\n    // Define where we are in the chain\r\n    enum State {\r\n        ProduceByFarmer,             //1\r\n        ForSaleByFarmer,             //2\r\n        PurchasedByDistributor,      //3   \r\n        ShippedByFarmer,             //4\r\n        ReceivedByDistributor,       //5\r\n        ProcessedByDistributor,      //6\r\n        PackageByDistributor,        //7\r\n        ForSaleByDistributor,        //8\r\n        PurchasedByManufacturer,     //9\r\n        ShippedByDistributor,        //10\r\n        ReceivedByManufacturer,      //11\r\n        ProcessedByManufacturer,     //12\r\n        PackageByManufacturer,       //13\r\n        ForSaleByManufacturer,       //14\r\n        PurchasedByRetailer,         //15\r\n        ShippedByManufacturer,       //16\r\n        ReceivedByRetailer,          //17\r\n        ForSaleByRetailer,           //18\r\n        PurchasedByConsumer          //19\r\n    }\r\n\r\n    State constant defaultState = State.ProduceByFarmer;\r\n\r\n    // Item struct with relevant variables:\r\n    // POTENTIALLY TRACK MORE VARIABLES \r\n\r\n    struct Item {\r\n        uint    sku;                    // Stock Keeping Unit (SKU)\r\n        uint    upc;                    // Generated by Farmer -> can be verified by Consumer\r\n        address ownerID;                // Metamask-Ethereum address of the current owner as the product moves through stages\r\n        address originFarmerID;         // Metamask-Ethereum address of the Farmer\r\n        string  originFarmName;         // Farmer Name\r\n        State   itemState;              // Product State as represented in the enum above\r\n        uint    productPrice;           // Product Price\r\n        address distributorID;          // Metamask-Ethereum address of the Distributor\r\n        address manufacturerID;         // Metamask-Ethereum address of the Manufacturer\r\n        address retailerID;             // Metamask-Ethereum address of the Retailer\r\n        address consumerID;             // Metamask-Ethereum address of the Consumer\r\n    }\r\n\r\n    // public mapping: maps UPC to an item\r\n    mapping (uint => Item) items;  \r\n\r\n    // Block number stuct\r\n    struct Txblocks {\r\n        uint FTD; // blockfarmerToDistributor\r\n        uint DTM; // blockDistributorToManufacturer\r\n        uint MTR; // blockManufacturerToRetailer\r\n        uint RTC; // blockRetailerToConsumer\r\n    }\r\n\r\n    // track its an item's journey through the supply chain -- to be sent from DApp.\r\n    mapping (uint => Txblocks) itemsHistory;\r\n\r\n\r\n    // Define events to listen to\r\n    event ProduceByFarmer(uint upc);              //1\r\n    event ForSaleByFarmer(uint upc);              //2\r\n    event PurchasedByDistributor(uint upc);       //3   \r\n    event ShippedByFarmer(uint upc);              //4\r\n    event ReceivedByDistributor(uint upc);        //5\r\n    event ProcessedByDistributor(uint upc);       //6\r\n    event PackageByDistributor(uint upc);         //7\r\n    event ForSaleByDistributor(uint upc);         //8\r\n    event PurchasedByManufacturer(uint upc);      //9\r\n    event ShippedByDistributor(uint upc);         //10\r\n    event ReceivedByManufacturer(uint upc);       //11\r\n    event ProcessedByManufacturer(uint upc);      //12\r\n    event PackageByManufacturer(uint upc);        //13\r\n    event ForSaleByManufacturer(uint upc);        //14\r\n    event PurchasedByRetailer(uint upc);          //15\r\n    event ShippedByManufacturer(uint upc);        //16\r\n    event ReceivedByRetailer(uint upc);           //17\r\n    event ForSaleByRetailer(uint upc);            //18\r\n    event PurchasedByConsumer(uint upc);          //19\r\n\r\n    // Checks & Requirements\r\n\r\n    // Modifier = automatically check a condition prior to executing the function\r\n    \r\n    // Define a modifer that verifies the Caller\r\n    modifier verifyCaller (address _address) {\r\n        require(msg.sender == _address,\r\n        \"Only with valid address possible\"\r\n        );\r\n        _;\r\n    }\r\n    \r\n    // Define a modifier that checks if the paid amount is sufficient to cover the price\r\n    modifier paidEnough(uint _price) {\r\n        require(msg.value >= _price,\r\n        \"Not enough money paid\"\r\n        );\r\n        _;\r\n    }\r\n\r\n    // Define a modifier that checks the price and refunds the remaining balance\r\n    modifier checkValue(uint _upc, address payable addressToFund) {\r\n        uint _price = items[_upc].productPrice;\r\n        uint  amountToReturn = msg.value - _price;\r\n        addressToFund.transfer(amountToReturn);\r\n        _;\r\n    }\r\n\r\n\r\n    // Item State Modifiers\r\n    // 1\r\n    modifier producedByFarmer(uint _upc) {\r\n        require(items[_upc].itemState == State.ProduceByFarmer);\r\n        _;\r\n    }\r\n    // 2\r\n    modifier forSaleByFarmer(uint _upc) {\r\n        require(items[_upc].itemState == State.ForSaleByFarmer);\r\n        _;\r\n    }\r\n    // 3\r\n    modifier purchasedByDistributor(uint _upc) {\r\n        require(items[_upc].itemState == State.PurchasedByDistributor);\r\n        _;\r\n    }\r\n    // 4\r\n    modifier shippedByFarmer(uint _upc) {\r\n        require(items[_upc].itemState == State.ShippedByFarmer);\r\n        _;\r\n    }\r\n    // 5\r\n    modifier receivedByDistributor(uint _upc) {\r\n        require(items[_upc].itemState == State.ReceivedByDistributor);\r\n        _;\r\n    }\r\n    // 6\r\n    modifier processByDistributor(uint _upc) {\r\n        require(items[_upc].itemState == State.ProcessedByDistributor);\r\n        _;\r\n    }\r\n    // 7\r\n    modifier packagedByDistributor(uint _upc) {\r\n        require(items[_upc].itemState == State.PackageByDistributor);\r\n        _;\r\n    }\r\n    // 8\r\n    modifier forSaleByDistributor(uint _upc) {\r\n        require(items[_upc].itemState == State.ForSaleByDistributor);\r\n        _;\r\n    }\r\n    // 9\r\n    modifier purchasedByManufacturer(uint _upc) {\r\n        require(items[_upc].itemState == State.PurchasedByManufacturer);\r\n        _;\r\n    } \r\n    // 10\r\n    modifier shippedByDistributor(uint _upc) {\r\n        require(items[_upc].itemState == State.ShippedByDistributor);\r\n        _;\r\n    }\r\n    // 11\r\n    modifier receivedByManufacturer(uint _upc) {\r\n        require(items[_upc].itemState == State.ReceivedByManufacturer);\r\n        _;\r\n    } \r\n    // 12\r\n    modifier processedByManufacturer(uint _upc) {\r\n        require(items[_upc].itemState == State.ProcessedByManufacturer);\r\n        _;\r\n    }\r\n    // 13   \r\n    modifier packageByManufacturer(uint _upc) {\r\n        require(items[_upc].itemState == State.PackageByManufacturer);\r\n        _;\r\n    } \r\n    // 14\r\n    modifier forSaleByManufacturer(uint _upc) {\r\n        require(items[_upc].itemState == State.ForSaleByManufacturer);\r\n        _;\r\n    }\r\n    // 15\r\n    modifier purchasedByRetailer(uint _upc) {\r\n        require(items[_upc].itemState == State.PurchasedByRetailer);\r\n        _;\r\n    }\r\n    // 16\r\n    modifier shippedByManufacturer(uint _upc) {\r\n        require(items[_upc].itemState == State.ShippedByManufacturer);\r\n        _;\r\n    }\r\n    // 17\r\n    modifier receivedByRetailer(uint _upc) {\r\n        require(items[_upc].itemState == State.ReceivedByRetailer);\r\n        _;\r\n    }\r\n    // 18\r\n    modifier forSaleByRetailer(uint _upc) {\r\n        require(items[_upc].itemState == State.ForSaleByRetailer);\r\n        _;\r\n    }\r\n    // 19\r\n    modifier purchasedByConsumer(uint _upc) {\r\n        require(items[_upc].itemState == State.PurchasedByConsumer);\r\n        _;\r\n    }\r\n\r\n    // constructor setup owner sku upc CHANGED PAYABLE TO PUBLIC (WALI)\r\n    constructor() public {\r\n        owner = msg.sender;\r\n        sku = 1;\r\n        upc = 1;\r\n    }\r\n\r\n    // allows you to convert an address into a payable address\r\n    function _make_payable(address x) private pure returns (address payable) {\r\n        return address(uint160(x));\r\n    }\r\n\r\n    // Define a function 'kill'\r\n    function kill() private {\r\n        if (msg.sender == owner) { // best to use require here\r\n        address payable ownerAddressPayable = _make_payable(owner);\r\n        selfdestruct(ownerAddressPayable);\r\n        }\r\n    }\r\n\r\n    /*\r\n    1st step in supplychain\r\n    Allows farmer to create chocolate \r\n    */\r\n    function produceItemByFarmer(uint _upc, string memory _originFarmName, uint _price) private onlyFarmer(){\r\n        address distributorID; // Empty distributorID address\r\n        address manufacturerID; // Empty manufacturerID address\r\n        address retailerID; // Empty retailerID address\r\n        address consumerID; // Empty consumerID address\r\n\r\n        Item memory newProduce; // Create a new struct Item in memory\r\n        newProduce.sku = sku;  // Stock Keeping Unit (SKU)\r\n        newProduce.upc = _upc; // Universal Product Code (UPC), generated by the Farmer, goes on the package, can be verified by the Consumer\r\n\r\n        newProduce.ownerID = msg.sender;\r\n        newProduce.originFarmerID = msg.sender;\r\n        newProduce.originFarmName = _originFarmName;\r\n\r\n        newProduce.itemState = defaultState;\r\n        newProduce.productPrice = _price;  \r\n\r\n        newProduce.distributorID = distributorID;\r\n        newProduce.manufacturerID = manufacturerID;\r\n        newProduce.retailerID = retailerID;\r\n        newProduce.consumerID = consumerID;\r\n\r\n        items[_upc] = newProduce;\r\n\r\n        uint placeholder; // Block number place holder\r\n        Txblocks memory txBlock;\r\n        txBlock.FTD = placeholder;\r\n        txBlock.DTM = placeholder;\r\n        txBlock.MTR = placeholder;\r\n        txBlock.RTC = placeholder;\r\n        itemsHistory[_upc] = txBlock;\r\n\r\n        // increment  sku\r\n        sku = sku + 1;\r\n\r\n        // Emit the appropriate event\r\n        emit ProduceByFarmer(_upc);\r\n    } \r\n    /*\r\n    2nd step in supplychain\r\n    Allows farmer to sell chocolate\r\n    */\r\n    function sellItemByFarmer(uint _upc, uint _price) private\r\n        onlyFarmer() // check msg.sender belongs to farmerRole\r\n        producedByFarmer(_upc) // check items state has been produced\r\n        verifyCaller(items[_upc].ownerID) // check msg.sender is owner\r\n        {\r\n        items[_upc].itemState = State.ForSaleByFarmer;\r\n        items[_upc].productPrice = _price;\r\n        emit ForSaleByFarmer(_upc);\r\n        }\r\n    /*\r\n    3rd step in supplychain\r\n    Allows distributor to purchase chocolate\r\n    */    \r\n    function purchaseItemByDistributor(uint _upc) public payable\r\n        onlyDistributor() // check msg.sender belongs to distributorRole\r\n        forSaleByFarmer(_upc) // check items state is for ForSaleByFarmer\r\n        paidEnough(items[_upc].productPrice) // check if distributor sent enough Ether for chocolate\r\n        checkValue(_upc, msg.sender) // check if overpayed return remaing funds back to msg.sender\r\n        {\r\n        address payable ownerAddressPayable = _make_payable(items[_upc].originFarmerID); // make originFarmID payable\r\n        ownerAddressPayable.transfer(items[_upc].productPrice); // transfer funds from distributor to farmer\r\n        items[_upc].ownerID = msg.sender; // update owner\r\n        items[_upc].distributorID = msg.sender; // update distributor\r\n        items[_upc].itemState = State.PurchasedByDistributor; // update state\r\n        itemsHistory[_upc].FTD = block.number; // add block number\r\n        emit PurchasedByDistributor(_upc);\r\n    }\r\n    /*\r\n    4th step in supplychain\r\n    Allows farmer to ship chocolate purchased by distributor\r\n    */\r\n    function shippedItemByFarmer(uint _upc) public payable\r\n        onlyFarmer() // check msg.sender belongs to Farmer\r\n        purchasedByDistributor(_upc)\r\n        verifyCaller(items[_upc].originFarmerID) // check msg.sender is originFarmID\r\n        {\r\n        items[_upc].itemState = State.ShippedByFarmer; // update state\r\n        emit ShippedByFarmer(_upc);\r\n    }\r\n    /*\r\n    5th step in supplychain\r\n    Allows distributor to receive chocolate\r\n    */\r\n    function receivedItemByDistributor(uint _upc) private\r\n        onlyDistributor() // check msg.sender belongs to DistributorRole\r\n        shippedByFarmer(_upc)\r\n        verifyCaller(items[_upc].ownerID) // check msg.sender is owner\r\n        {\r\n        items[_upc].itemState = State.ReceivedByDistributor; // update state\r\n        emit ReceivedByDistributor(_upc);\r\n    }\r\n    /*\r\n    6th step in supplychain\r\n    Allows distributor to process chocolate\r\n    */\r\n    function processedItemByDistributor(uint _upc) private\r\n        onlyDistributor() // check msg.sender belongs to DistributorRole\r\n        receivedByDistributor(_upc)\r\n        verifyCaller(items[_upc].ownerID) // check msg.sender is owner\r\n        {\r\n        items[_upc].itemState = State.ProcessedByDistributor; // update state\r\n        emit ProcessedByDistributor(_upc);\r\n    }\r\n    /*\r\n    7th step in supplychain\r\n    Allows distributor to package chocolate\r\n    */\r\n    function packageItemByDistributor(uint _upc) private\r\n        onlyDistributor() // check msg.sender belongs to DistributorRole\r\n        processByDistributor(_upc)\r\n        verifyCaller(items[_upc].ownerID) // check msg.sender is owner\r\n        {\r\n        items[_upc].itemState = State.PackageByDistributor;\r\n        emit PackageByDistributor(_upc);\r\n    }\r\n    /*\r\n    8th step in supplychain\r\n    Allows distributor to sell chocolate\r\n    */\r\n    function sellItemByDistributor(uint _upc, uint _price) private\r\n        onlyDistributor() // check msg.sender belongs to DistributorRole\r\n        packagedByDistributor(_upc)\r\n        verifyCaller(items[_upc].ownerID) // check msg.sender is owner\r\n        {\r\n            items[_upc].itemState = State.ForSaleByDistributor;\r\n            items[_upc].productPrice = _price;\r\n            emit ForSaleByDistributor(upc);\r\n    }\r\n    /*\r\n    9th step in supplychain\r\n    Allows manufacturer to purchase chocolate\r\n    */\r\n    function purchaseItemByManufacturer(uint _upc) public payable\r\n        onlyManufacturer() // check msg.sender belongs to ManufacturerRole\r\n        forSaleByDistributor(_upc)\r\n        paidEnough(items[_upc].productPrice)\r\n        checkValue(_upc, msg.sender)\r\n        {\r\n            address payable ownerAddressPayable = _make_payable(items[_upc].manufacturerID);\r\n            ownerAddressPayable.transfer(items[_upc].productPrice);\r\n            items[_upc].ownerID = msg.sender;\r\n            items[_upc].manufacturerID = msg.sender;\r\n            items[_upc].itemState = State.PurchasedByManufacturer;\r\n            itemsHistory[_upc].DTM = block.number;\r\n            emit PurchasedByManufacturer(_upc);\r\n        }\r\n    /*\r\n    10th step in supplychain\r\n    Allows distributor to ship chocolate purchased by manufacturer\r\n    */\r\n    function shippedItemByDistributor(uint _upc) public payable\r\n        onlyDistributor() // check msg.sender belongs to DistributorRole\r\n        purchasedByManufacturer(_upc)\r\n        verifyCaller(items[_upc].ownerID) // check msg.sender is originFarmID\r\n        {\r\n        items[_upc].itemState = State.ShippedByDistributor; // update state\r\n        emit ShippedByDistributor(_upc);\r\n    }\r\n    /*\r\n    11th step in supplychain\r\n    Allows manufacturer to receive chocolate purchased by distributor\r\n    */\r\n    function receivedItemByManufacturer(uint _upc) private\r\n        onlyManufacturer()\r\n        shippedByDistributor(_upc)\r\n        verifyCaller(items[_upc].ownerID) // check msg.sender is ownerID\r\n    {\r\n        items[_upc].itemState = State.ReceivedByManufacturer; // update state\r\n        emit ReceivedByManufacturer(_upc);\r\n    }\r\n    /*\r\n    12th step in supplychain\r\n    Allows manufacturer to process chocolate\r\n    */\r\n    function processedItemByManufacturer(uint _upc) private\r\n        onlyManufacturer() // check msg.sender belongs to ManufacturerRole\r\n        receivedByManufacturer(_upc)\r\n        verifyCaller(items[_upc].ownerID) // check msg.sender is owner\r\n        {\r\n        items[_upc].itemState = State.ProcessedByManufacturer; // update state\r\n        emit ProcessedByManufacturer(_upc);\r\n    }\r\n    /*\r\n    13th step in supplychain\r\n    Allows manufacturer to package chocolate\r\n    */\r\n    function packageItemByManufacturer(uint _upc) private\r\n        onlyManufacturer() // check msg.sender belongs to ManufacturerRole\r\n        processedByManufacturer(_upc)\r\n        verifyCaller(items[_upc].ownerID) // check msg.sender is owner\r\n        {\r\n        items[_upc].itemState = State.PackageByManufacturer;\r\n        emit PackageByManufacturer(_upc);\r\n    }\r\n    /*\r\n    14th step in supplychain\r\n    Allows manufacturer to sell chocolate\r\n    */\r\n    function sellItemByManufacturer(uint _upc, uint _price) private\r\n        onlyManufacturer() // check msg.sender belongs to ManufacturerRole\r\n        packageByManufacturer(_upc)\r\n        verifyCaller(items[_upc].ownerID) // check msg.sender is owner\r\n        {\r\n            items[_upc].itemState = State.ForSaleByManufacturer;\r\n            items[_upc].productPrice = _price;\r\n            emit ForSaleByManufacturer(upc);\r\n    }\r\n    /*\r\n    15th step in supplychain\r\n    Allows retailer to buy chocolate\r\n    */\r\n    function purchaseItemByRetailer(uint _upc) public payable\r\n        onlyRetailer() // check msg.sender belongs to RetailerRole\r\n        forSaleByManufacturer(_upc)\r\n        paidEnough(items[_upc].productPrice)\r\n        checkValue(_upc, msg.sender)\r\n        {\r\n        address payable ownerAddressPayable = _make_payable(items[_upc].distributorID);\r\n        ownerAddressPayable.transfer(items[_upc].productPrice);\r\n        items[_upc].ownerID = msg.sender;\r\n        items[_upc].retailerID = msg.sender;\r\n        items[_upc].itemState = State.PurchasedByRetailer;\r\n        itemsHistory[_upc].MTR = block.number;\r\n        emit PurchasedByRetailer(_upc);\r\n    }\r\n    /*\r\n    16th step in supplychain\r\n    Allows manfacturer to ship chocolate\r\n    */   \r\n    function shippedItemByManufacturer(uint _upc) public payable\r\n        onlyManufacturer() // check msg.sender belongs to DistributorRole\r\n        purchasedByRetailer(_upc)\r\n        verifyCaller(items[_upc].ownerID) // check msg.sender is originFarmID\r\n        {\r\n        items[_upc].itemState = State.ShippedByManufacturer; // update state\r\n        emit ShippedByManufacturer(_upc);\r\n    }\r\n    /*\r\n    17th step in supplychain\r\n    Allows retialer to receive chocolate from manufacturer\r\n    */\r\n    function receivedItemByRetailer(uint _upc) private\r\n        onlyRetailer() // check msg.sender belongs to RetailerRole\r\n        shippedByManufacturer(_upc)\r\n        verifyCaller(items[_upc].ownerID) // check msg.sender is ownerID\r\n        {\r\n        items[_upc].itemState = State.ReceivedByRetailer;\r\n        emit ReceivedByRetailer(_upc);\r\n    }\r\n    /*\r\n    18th step in supplychain\r\n    Allows retailer to sell chocolate\r\n    */\r\n    function sellItemByRetailer(uint _upc, uint _price) private\r\n        onlyRetailer()  // check msg.sender belongs to RetailerRole\r\n        receivedByRetailer(_upc)\r\n        verifyCaller(items[_upc].ownerID) // check msg.sender is ownerID\r\n        {\r\n        items[_upc].itemState = State.ForSaleByRetailer;\r\n        items[_upc].productPrice = _price;\r\n        emit ForSaleByRetailer(_upc);\r\n    }\r\n    /*\r\n    19th step in supplychain\r\n    Allows retailer to sell chocolate\r\n    */  \r\n    function purchaseItemByConsumer(uint _upc) public payable\r\n        onlyConsumer()  // check msg.sender belongs to ConsumerRole\r\n        forSaleByRetailer(_upc)\r\n        paidEnough(items[_upc].productPrice)\r\n        checkValue(_upc, msg.sender)\r\n        {\r\n        items[_upc].consumerID = msg.sender;\r\n        address payable ownerAddressPayable = _make_payable(items[_upc].retailerID);\r\n        ownerAddressPayable.transfer(items[_upc].productPrice);\r\n        items[_upc].ownerID = msg.sender;\r\n        items[_upc].consumerID = msg.sender;\r\n        items[_upc].itemState = State.PurchasedByConsumer;\r\n        itemsHistory[_upc].RTC = block.number;\r\n        emit PurchasedByConsumer(_upc);\r\n    }\r\n\r\n\r\n// Define a function 'fetchItemBufferOne' that fetches the data\r\n  function fetchItemBufferOne(uint _upc) private view returns\r\n    (\r\n    uint    itemSKU,\r\n    uint    itemUPC,\r\n    address ownerID,\r\n    address originFarmerID,\r\n    string memory  originFarmName\r\n    )\r\n    {\r\n    // Assign values to the parameters\r\n    Item memory item = items[_upc];\r\n    return \r\n    (\r\n      item.sku,\r\n      item.upc,\r\n      item.ownerID,\r\n      item.originFarmerID,\r\n      item.originFarmName\r\n    );\r\n    }\r\n\r\n // Define a function 'fetchItemBufferTwo' that fetches the data\r\n    function fetchItemBufferTwo(uint _upc) private view returns (\r\n        uint    itemSKU,\r\n        uint    itemUPC,\r\n        uint    productPrice,\r\n        State   itemState,\r\n        address distributorID,\r\n        address manufacturerID,\r\n        address retailerID,\r\n        address consumerID\r\n    ) {\r\n        // Assign values to the 9 parameters\r\n        Item memory item = items[_upc];\r\n        return (\r\n            item.sku,\r\n            item.upc,\r\n            item.productPrice,\r\n            item.itemState,\r\n            item.distributorID,\r\n            item.manufacturerID,\r\n            item.retailerID,\r\n            item.consumerID\r\n        );\r\n    }\r\n\r\n// Define a function 'fetchItemHistory' that fetches the data\r\n  function fetchitemHistory(uint _upc) private view returns\r\n    (\r\n      uint blockfarmerToDistributor,\r\n      uint blockDistributorToManufacturer,\r\n      uint blockManufacturerToRetailer,\r\n      uint blockRetailerToConsumer\r\n    )\r\n    {\r\n      // Assign value to the parameters\r\n      Txblocks memory txblock = itemsHistory[_upc];\r\n      return\r\n      (\r\n        txblock.FTD,\r\n        txblock.DTM,\r\n        txblock.MTR,\r\n        txblock.RTC\r\n      );\r\n    }\r\n}\r\n",
  "sourcePath": "C:/Users/kampw/OneDrive/Bocconi/2020-2021/Finance With Big Data/Finance-for-big-data/contracts/SupplyChain.sol",
  "compiler": {
    "name": "solc",
    "version": "0.5.16+commit.9c3226ce.Emscripten.clang"
  },
  "schemaVersion": "3.3.2",
  "updatedAt": "2020-12-07T18:01:57.055Z",
  "networkType": "ethereum",
  "devdoc": {
    "methods": {}
  },
  "userdoc": {
    "methods": {}
  }
}