{
  "contractName": "SupplyChain",
  "abi": [
    {
      "inputs": [],
      "payable": false,
      "stateMutability": "nonpayable",
      "type": "constructor"
    },
    {
      "anonymous": false,
      "inputs": [
        {
          "indexed": true,
          "internalType": "address",
          "name": "account",
          "type": "address"
        }
      ],
      "name": "ConsumerAdded",
      "type": "event"
    },
    {
      "anonymous": false,
      "inputs": [
        {
          "indexed": true,
          "internalType": "address",
          "name": "account",
          "type": "address"
        }
      ],
      "name": "ConsumerRemoved",
      "type": "event"
    },
    {
      "anonymous": false,
      "inputs": [
        {
          "indexed": true,
          "internalType": "address",
          "name": "account",
          "type": "address"
        }
      ],
      "name": "DistributorAdded",
      "type": "event"
    },
    {
      "anonymous": false,
      "inputs": [
        {
          "indexed": true,
          "internalType": "address",
          "name": "account",
          "type": "address"
        }
      ],
      "name": "DistributorRemoved",
      "type": "event"
    },
    {
      "anonymous": false,
      "inputs": [
        {
          "indexed": true,
          "internalType": "address",
          "name": "account",
          "type": "address"
        }
      ],
      "name": "FarmerAdded",
      "type": "event"
    },
    {
      "anonymous": false,
      "inputs": [
        {
          "indexed": true,
          "internalType": "address",
          "name": "account",
          "type": "address"
        }
      ],
      "name": "FarmerRemoved",
      "type": "event"
    },
    {
      "anonymous": false,
      "inputs": [
        {
          "indexed": false,
          "internalType": "uint256",
          "name": "upc",
          "type": "uint256"
        }
      ],
      "name": "ForSaleByDistributor",
      "type": "event"
    },
    {
      "anonymous": false,
      "inputs": [
        {
          "indexed": false,
          "internalType": "uint256",
          "name": "upc",
          "type": "uint256"
        }
      ],
      "name": "ForSaleByFarmer",
      "type": "event"
    },
    {
      "anonymous": false,
      "inputs": [
        {
          "indexed": false,
          "internalType": "uint256",
          "name": "upc",
          "type": "uint256"
        }
      ],
      "name": "ForSaleByManufacturer",
      "type": "event"
    },
    {
      "anonymous": false,
      "inputs": [
        {
          "indexed": false,
          "internalType": "uint256",
          "name": "upc",
          "type": "uint256"
        }
      ],
      "name": "ForSaleByRetailer",
      "type": "event"
    },
    {
      "anonymous": false,
      "inputs": [
        {
          "indexed": true,
          "internalType": "address",
          "name": "account",
          "type": "address"
        }
      ],
      "name": "ManufacturerAdded",
      "type": "event"
    },
    {
      "anonymous": false,
      "inputs": [
        {
          "indexed": true,
          "internalType": "address",
          "name": "account",
          "type": "address"
        }
      ],
      "name": "ManufacturerRemoved",
      "type": "event"
    },
    {
      "anonymous": false,
      "inputs": [
        {
          "indexed": false,
          "internalType": "uint256",
          "name": "upc",
          "type": "uint256"
        }
      ],
      "name": "PackageByDistributor",
      "type": "event"
    },
    {
      "anonymous": false,
      "inputs": [
        {
          "indexed": false,
          "internalType": "uint256",
          "name": "upc",
          "type": "uint256"
        }
      ],
      "name": "PackageByManufacturer",
      "type": "event"
    },
    {
      "anonymous": false,
      "inputs": [
        {
          "indexed": false,
          "internalType": "uint256",
          "name": "upc",
          "type": "uint256"
        }
      ],
      "name": "ProcessedByDistributor",
      "type": "event"
    },
    {
      "anonymous": false,
      "inputs": [
        {
          "indexed": false,
          "internalType": "uint256",
          "name": "upc",
          "type": "uint256"
        }
      ],
      "name": "ProcessedByManufacturer",
      "type": "event"
    },
    {
      "anonymous": false,
      "inputs": [
        {
          "indexed": false,
          "internalType": "uint256",
          "name": "upc",
          "type": "uint256"
        }
      ],
      "name": "ProduceByFarmer",
      "type": "event"
    },
    {
      "anonymous": false,
      "inputs": [
        {
          "indexed": false,
          "internalType": "uint256",
          "name": "upc",
          "type": "uint256"
        }
      ],
      "name": "PurchasedByConsumer",
      "type": "event"
    },
    {
      "anonymous": false,
      "inputs": [
        {
          "indexed": false,
          "internalType": "uint256",
          "name": "upc",
          "type": "uint256"
        }
      ],
      "name": "PurchasedByDistributor",
      "type": "event"
    },
    {
      "anonymous": false,
      "inputs": [
        {
          "indexed": false,
          "internalType": "uint256",
          "name": "upc",
          "type": "uint256"
        }
      ],
      "name": "PurchasedByManufacturer",
      "type": "event"
    },
    {
      "anonymous": false,
      "inputs": [
        {
          "indexed": false,
          "internalType": "uint256",
          "name": "upc",
          "type": "uint256"
        }
      ],
      "name": "PurchasedByRetailer",
      "type": "event"
    },
    {
      "anonymous": false,
      "inputs": [
        {
          "indexed": false,
          "internalType": "uint256",
          "name": "upc",
          "type": "uint256"
        }
      ],
      "name": "ReceivedByDistributor",
      "type": "event"
    },
    {
      "anonymous": false,
      "inputs": [
        {
          "indexed": false,
          "internalType": "uint256",
          "name": "upc",
          "type": "uint256"
        }
      ],
      "name": "ReceivedByManufacturer",
      "type": "event"
    },
    {
      "anonymous": false,
      "inputs": [
        {
          "indexed": false,
          "internalType": "uint256",
          "name": "upc",
          "type": "uint256"
        }
      ],
      "name": "ReceivedByRetailer",
      "type": "event"
    },
    {
      "anonymous": false,
      "inputs": [
        {
          "indexed": true,
          "internalType": "address",
          "name": "account",
          "type": "address"
        }
      ],
      "name": "RetailerAdded",
      "type": "event"
    },
    {
      "anonymous": false,
      "inputs": [
        {
          "indexed": true,
          "internalType": "address",
          "name": "account",
          "type": "address"
        }
      ],
      "name": "RetailerRemoved",
      "type": "event"
    },
    {
      "anonymous": false,
      "inputs": [
        {
          "indexed": false,
          "internalType": "uint256",
          "name": "upc",
          "type": "uint256"
        }
      ],
      "name": "ShippedByDistributor",
      "type": "event"
    },
    {
      "anonymous": false,
      "inputs": [
        {
          "indexed": false,
          "internalType": "uint256",
          "name": "upc",
          "type": "uint256"
        }
      ],
      "name": "ShippedByFarmer",
      "type": "event"
    },
    {
      "anonymous": false,
      "inputs": [
        {
          "indexed": false,
          "internalType": "uint256",
          "name": "upc",
          "type": "uint256"
        }
      ],
      "name": "ShippedByManufacturer",
      "type": "event"
    },
    {
      "anonymous": false,
      "inputs": [
        {
          "indexed": true,
          "internalType": "address",
          "name": "oldOwner",
          "type": "address"
        },
        {
          "indexed": true,
          "internalType": "address",
          "name": "newOwner",
          "type": "address"
        }
      ],
      "name": "TransferOwnership",
      "type": "event"
    },
    {
      "constant": false,
      "inputs": [
        {
          "internalType": "address",
          "name": "account",
          "type": "address"
        }
      ],
      "name": "addConsumer",
      "outputs": [],
      "payable": false,
      "stateMutability": "nonpayable",
      "type": "function"
    },
    {
      "constant": false,
      "inputs": [
        {
          "internalType": "address",
          "name": "account",
          "type": "address"
        }
      ],
      "name": "addDistributor",
      "outputs": [],
      "payable": false,
      "stateMutability": "nonpayable",
      "type": "function"
    },
    {
      "constant": false,
      "inputs": [
        {
          "internalType": "address",
          "name": "account",
          "type": "address"
        }
      ],
      "name": "addFarmer",
      "outputs": [],
      "payable": false,
      "stateMutability": "nonpayable",
      "type": "function"
    },
    {
      "constant": false,
      "inputs": [
        {
          "internalType": "address",
          "name": "account",
          "type": "address"
        }
      ],
      "name": "addManufacturer",
      "outputs": [],
      "payable": false,
      "stateMutability": "nonpayable",
      "type": "function"
    },
    {
      "constant": false,
      "inputs": [
        {
          "internalType": "address",
          "name": "account",
          "type": "address"
        }
      ],
      "name": "addRetailer",
      "outputs": [],
      "payable": false,
      "stateMutability": "nonpayable",
      "type": "function"
    },
    {
      "constant": true,
      "inputs": [
        {
          "internalType": "address",
          "name": "account",
          "type": "address"
        }
      ],
      "name": "isConsumer",
      "outputs": [
        {
          "internalType": "bool",
          "name": "",
          "type": "bool"
        }
      ],
      "payable": false,
      "stateMutability": "view",
      "type": "function"
    },
    {
      "constant": true,
      "inputs": [
        {
          "internalType": "address",
          "name": "account",
          "type": "address"
        }
      ],
      "name": "isDistributor",
      "outputs": [
        {
          "internalType": "bool",
          "name": "",
          "type": "bool"
        }
      ],
      "payable": false,
      "stateMutability": "view",
      "type": "function"
    },
    {
      "constant": true,
      "inputs": [
        {
          "internalType": "address",
          "name": "account",
          "type": "address"
        }
      ],
      "name": "isFarmer",
      "outputs": [
        {
          "internalType": "bool",
          "name": "",
          "type": "bool"
        }
      ],
      "payable": false,
      "stateMutability": "view",
      "type": "function"
    },
    {
      "constant": true,
      "inputs": [
        {
          "internalType": "address",
          "name": "account",
          "type": "address"
        }
      ],
      "name": "isManufacturer",
      "outputs": [
        {
          "internalType": "bool",
          "name": "",
          "type": "bool"
        }
      ],
      "payable": false,
      "stateMutability": "view",
      "type": "function"
    },
    {
      "constant": true,
      "inputs": [],
      "name": "isOwner",
      "outputs": [
        {
          "internalType": "bool",
          "name": "",
          "type": "bool"
        }
      ],
      "payable": false,
      "stateMutability": "view",
      "type": "function"
    },
    {
      "constant": true,
      "inputs": [
        {
          "internalType": "address",
          "name": "account",
          "type": "address"
        }
      ],
      "name": "isRetailer",
      "outputs": [
        {
          "internalType": "bool",
          "name": "",
          "type": "bool"
        }
      ],
      "payable": false,
      "stateMutability": "view",
      "type": "function"
    },
    {
      "constant": true,
      "inputs": [],
      "name": "ownerLookup",
      "outputs": [
        {
          "internalType": "address",
          "name": "",
          "type": "address"
        }
      ],
      "payable": false,
      "stateMutability": "view",
      "type": "function"
    },
    {
      "constant": false,
      "inputs": [
        {
          "internalType": "address",
          "name": "account",
          "type": "address"
        }
      ],
      "name": "renounceConsumer",
      "outputs": [],
      "payable": false,
      "stateMutability": "nonpayable",
      "type": "function"
    },
    {
      "constant": false,
      "inputs": [],
      "name": "renounceDistributor",
      "outputs": [],
      "payable": false,
      "stateMutability": "nonpayable",
      "type": "function"
    },
    {
      "constant": false,
      "inputs": [],
      "name": "renounceFarmer",
      "outputs": [],
      "payable": false,
      "stateMutability": "nonpayable",
      "type": "function"
    },
    {
      "constant": false,
      "inputs": [
        {
          "internalType": "address",
          "name": "account",
          "type": "address"
        }
      ],
      "name": "renounceManufacturer",
      "outputs": [],
      "payable": false,
      "stateMutability": "nonpayable",
      "type": "function"
    },
    {
      "constant": false,
      "inputs": [],
      "name": "renounceOwnership",
      "outputs": [],
      "payable": false,
      "stateMutability": "nonpayable",
      "type": "function"
    },
    {
      "constant": false,
      "inputs": [],
      "name": "renounceRetailer",
      "outputs": [],
      "payable": false,
      "stateMutability": "nonpayable",
      "type": "function"
    },
    {
      "constant": false,
      "inputs": [
        {
          "internalType": "address",
          "name": "newOwner",
          "type": "address"
        }
      ],
      "name": "transferOwnership",
      "outputs": [],
      "payable": false,
      "stateMutability": "nonpayable",
      "type": "function"
    },
    {
      "constant": true,
      "inputs": [
        {
          "internalType": "address",
          "name": "x",
          "type": "address"
        }
      ],
      "name": "_make_payable",
      "outputs": [
        {
          "internalType": "address payable",
          "name": "",
          "type": "address"
        }
      ],
      "payable": false,
      "stateMutability": "pure",
      "type": "function"
    },
    {
      "constant": false,
      "inputs": [],
      "name": "kill",
      "outputs": [],
      "payable": false,
      "stateMutability": "nonpayable",
      "type": "function"
    },
    {
      "constant": false,
      "inputs": [
        {
          "internalType": "uint256",
          "name": "_upc",
          "type": "uint256"
        },
        {
          "internalType": "string",
          "name": "_originFarmName",
          "type": "string"
        },
        {
          "internalType": "uint256",
          "name": "_price",
          "type": "uint256"
        }
      ],
      "name": "produceItemByFarmer",
      "outputs": [],
      "payable": false,
      "stateMutability": "nonpayable",
      "type": "function"
    },
    {
      "constant": false,
      "inputs": [
        {
          "internalType": "uint256",
          "name": "_upc",
          "type": "uint256"
        },
        {
          "internalType": "uint256",
          "name": "_price",
          "type": "uint256"
        }
      ],
      "name": "sellItemByFarmer",
      "outputs": [],
      "payable": false,
      "stateMutability": "nonpayable",
      "type": "function"
    },
    {
      "constant": false,
      "inputs": [
        {
          "internalType": "uint256",
          "name": "_upc",
          "type": "uint256"
        }
      ],
      "name": "purchaseItemByDistributor",
      "outputs": [],
      "payable": true,
      "stateMutability": "payable",
      "type": "function"
    },
    {
      "constant": false,
      "inputs": [
        {
          "internalType": "uint256",
          "name": "_upc",
          "type": "uint256"
        }
      ],
      "name": "shippedItemByFarmer",
      "outputs": [],
      "payable": true,
      "stateMutability": "payable",
      "type": "function"
    },
    {
      "constant": false,
      "inputs": [
        {
          "internalType": "uint256",
          "name": "_upc",
          "type": "uint256"
        }
      ],
      "name": "receivedItemByDistributor",
      "outputs": [],
      "payable": false,
      "stateMutability": "nonpayable",
      "type": "function"
    },
    {
      "constant": false,
      "inputs": [
        {
          "internalType": "uint256",
          "name": "_upc",
          "type": "uint256"
        }
      ],
      "name": "processedItemByDistributor",
      "outputs": [],
      "payable": false,
      "stateMutability": "nonpayable",
      "type": "function"
    },
    {
      "constant": false,
      "inputs": [
        {
          "internalType": "uint256",
          "name": "_upc",
          "type": "uint256"
        }
      ],
      "name": "packageItemByDistributor",
      "outputs": [],
      "payable": false,
      "stateMutability": "nonpayable",
      "type": "function"
    },
    {
      "constant": false,
      "inputs": [
        {
          "internalType": "uint256",
          "name": "_upc",
          "type": "uint256"
        },
        {
          "internalType": "uint256",
          "name": "_price",
          "type": "uint256"
        }
      ],
      "name": "sellItemByDistributor",
      "outputs": [],
      "payable": false,
      "stateMutability": "nonpayable",
      "type": "function"
    },
    {
      "constant": false,
      "inputs": [
        {
          "internalType": "uint256",
          "name": "_upc",
          "type": "uint256"
        }
      ],
      "name": "purchaseItemByManufacturer",
      "outputs": [],
      "payable": true,
      "stateMutability": "payable",
      "type": "function"
    },
    {
      "constant": false,
      "inputs": [
        {
          "internalType": "uint256",
          "name": "_upc",
          "type": "uint256"
        }
      ],
      "name": "shippedItemByDistributor",
      "outputs": [],
      "payable": true,
      "stateMutability": "payable",
      "type": "function"
    },
    {
      "constant": false,
      "inputs": [
        {
          "internalType": "uint256",
          "name": "_upc",
          "type": "uint256"
        }
      ],
      "name": "receivedItemByManufacturer",
      "outputs": [],
      "payable": false,
      "stateMutability": "nonpayable",
      "type": "function"
    },
    {
      "constant": false,
      "inputs": [
        {
          "internalType": "uint256",
          "name": "_upc",
          "type": "uint256"
        }
      ],
      "name": "processedItemByManufacturer",
      "outputs": [],
      "payable": false,
      "stateMutability": "nonpayable",
      "type": "function"
    },
    {
      "constant": false,
      "inputs": [
        {
          "internalType": "uint256",
          "name": "_upc",
          "type": "uint256"
        }
      ],
      "name": "packageItemByManufacturer",
      "outputs": [],
      "payable": false,
      "stateMutability": "nonpayable",
      "type": "function"
    },
    {
      "constant": false,
      "inputs": [
        {
          "internalType": "uint256",
          "name": "_upc",
          "type": "uint256"
        },
        {
          "internalType": "uint256",
          "name": "_price",
          "type": "uint256"
        }
      ],
      "name": "sellItemByManufacturer",
      "outputs": [],
      "payable": false,
      "stateMutability": "nonpayable",
      "type": "function"
    },
    {
      "constant": false,
      "inputs": [
        {
          "internalType": "uint256",
          "name": "_upc",
          "type": "uint256"
        }
      ],
      "name": "purchaseItemByRetailer",
      "outputs": [],
      "payable": true,
      "stateMutability": "payable",
      "type": "function"
    },
    {
      "constant": false,
      "inputs": [
        {
          "internalType": "uint256",
          "name": "_upc",
          "type": "uint256"
        }
      ],
      "name": "shippedItemByManufacturer",
      "outputs": [],
      "payable": true,
      "stateMutability": "payable",
      "type": "function"
    },
    {
      "constant": false,
      "inputs": [
        {
          "internalType": "uint256",
          "name": "_upc",
          "type": "uint256"
        }
      ],
      "name": "receivedItemByRetailer",
      "outputs": [],
      "payable": false,
      "stateMutability": "nonpayable",
      "type": "function"
    },
    {
      "constant": false,
      "inputs": [
        {
          "internalType": "uint256",
          "name": "_upc",
          "type": "uint256"
        },
        {
          "internalType": "uint256",
          "name": "_price",
          "type": "uint256"
        }
      ],
      "name": "sellItemByRetailer",
      "outputs": [],
      "payable": false,
      "stateMutability": "nonpayable",
      "type": "function"
    },
    {
      "constant": false,
      "inputs": [
        {
          "internalType": "uint256",
          "name": "_upc",
          "type": "uint256"
        }
      ],
      "name": "purchaseItemByConsumer",
      "outputs": [],
      "payable": true,
      "stateMutability": "payable",
      "type": "function"
    },
    {
      "constant": true,
      "inputs": [
        {
          "internalType": "uint256",
          "name": "_upc",
          "type": "uint256"
        }
      ],
      "name": "fetchItemBufferOne",
      "outputs": [
        {
          "internalType": "uint256",
          "name": "itemSKU",
          "type": "uint256"
        },
        {
          "internalType": "uint256",
          "name": "itemUPC",
          "type": "uint256"
        },
        {
          "internalType": "address",
          "name": "ownerID",
          "type": "address"
        },
        {
          "internalType": "address",
          "name": "originFarmerID",
          "type": "address"
        },
        {
          "internalType": "string",
          "name": "originFarmName",
          "type": "string"
        }
      ],
      "payable": false,
      "stateMutability": "view",
      "type": "function"
    },
    {
      "constant": true,
      "inputs": [
        {
          "internalType": "uint256",
          "name": "_upc",
          "type": "uint256"
        }
      ],
      "name": "fetchItemBufferTwo",
      "outputs": [
        {
          "internalType": "uint256",
          "name": "itemSKU",
          "type": "uint256"
        },
        {
          "internalType": "uint256",
          "name": "itemUPC",
          "type": "uint256"
        },
        {
          "internalType": "uint256",
          "name": "productPrice",
          "type": "uint256"
        },
        {
          "internalType": "enum SupplyChain.State",
          "name": "itemState",
          "type": "uint8"
        },
        {
          "internalType": "address",
          "name": "distributorID",
          "type": "address"
        },
        {
          "internalType": "address",
          "name": "manufacturerID",
          "type": "address"
        },
        {
          "internalType": "address",
          "name": "retailerID",
          "type": "address"
        },
        {
          "internalType": "address",
          "name": "consumerID",
          "type": "address"
        }
      ],
      "payable": false,
      "stateMutability": "view",
      "type": "function"
    },
    {
      "constant": true,
      "inputs": [
        {
          "internalType": "uint256",
          "name": "_upc",
          "type": "uint256"
        }
      ],
      "name": "fetchitemHistory",
      "outputs": [
        {
          "internalType": "uint256",
          "name": "blockfarmerToDistributor",
          "type": "uint256"
        },
        {
          "internalType": "uint256",
          "name": "blockDistributorToManufacturer",
          "type": "uint256"
        },
        {
          "internalType": "uint256",
          "name": "blockManufacturerToRetailer",
          "type": "uint256"
        },
        {
          "internalType": "uint256",
          "name": "blockRetailerToConsumer",
          "type": "uint256"
        }
      ],
      "payable": false,
      "stateMutability": "view",
      "type": "function"
    }
  ],
  "bytecode": "0x60806040523480156200001157600080fd5b50336000806101000a81548173ffffffffffffffffffffffffffffffffffffffff021916908373ffffffffffffffffffffffffffffffffffffffff1602179055506000809054906101000a900473ffffffffffffffffffffffffffffffffffffffff1673ffffffffffffffffffffffffffffffffffffffff16600073ffffffffffffffffffffffffffffffffffffffff167f5c486528ec3e3f0ea91181cff8116f02bfa350e03b8b6f12e00765adbb5af85c60405160405180910390a3620000df336200017a60201b60201c565b620000f033620001db60201b60201c565b62000101336200023c60201b60201c565b62000112336200029d60201b60201c565b6200012333620002fe60201b60201c565b33600660006101000a81548173ffffffffffffffffffffffffffffffffffffffff021916908373ffffffffffffffffffffffffffffffffffffffff1602179055506001600881905550600160078190555062000433565b620001958160016200035f60201b620048cf1790919060201c565b8073ffffffffffffffffffffffffffffffffffffffff167f2e0ded4123377a3c2bc9a26f1717655a129e2f20752924d42e730ec89c83dbd060405160405180910390a250565b620001f68160026200035f60201b620048cf1790919060201c565b8073ffffffffffffffffffffffffffffffffffffffff167fddbf200aa634dc3fb81cfd68583dd1040d1c751d335e1d86b631bde3e977fea860405160405180910390a250565b620002578160036200035f60201b620048cf1790919060201c565b8073ffffffffffffffffffffffffffffffffffffffff167f561138658ca49a8540dc70dcfe64c9026c1c5b9344642242dd6562970f9c127860405160405180910390a250565b620002b88160046200035f60201b620048cf1790919060201c565b8073ffffffffffffffffffffffffffffffffffffffff167f71ae26cad02663e3d92efd6ec56031a80d74a20c0ab4183faa8bf262261c9baa60405160405180910390a250565b620003198160056200035f60201b620048cf1790919060201c565b8073ffffffffffffffffffffffffffffffffffffffff167f28b26e7a3d20aedbc5f8f2ebf7da671c0491723a2b78f47a097b0e46dee0714260405160405180910390a250565b620003718282620003da60201b60201c565b156200037c57600080fd5b60018260000160008373ffffffffffffffffffffffffffffffffffffffff1673ffffffffffffffffffffffffffffffffffffffff16815260200190815260200160002060006101000a81548160ff0219169083151502179055505050565b60008260000160008373ffffffffffffffffffffffffffffffffffffffff1673ffffffffffffffffffffffffffffffffffffffff16815260200190815260200160002060009054906101000a900460ff16905092915050565b614b9d80620004436000396000f3fe60806040526004361061025c5760003560e01c806380c3f96d11610144578063b9429069116100b6578063e02e64ea1161007a578063e02e64ea14610e72578063e618f00014610ec9578063f2fde38b14610f0e578063f487d48d14610f5f578063f9b6daf714610fb0578063fdcdc06f14610feb5761025c565b8063b942906914610d5b578063b9a40d0414610dc4578063cbb34d4f14610df2578063db0e6a2f14610e2d578063df74dc3a14610e445761025c565b80638ec4f505116101085780638ec4f50514610bb85780638f0c86fa14610c095780638f32d59b14610c725780639154135514610ca1578063a3aca62b14610cdc578063b869991614610d0a5761025c565b806380c3f96d14610a7457806380fc0ce414610ac557806382e831ec14610adc578063834ff73914610b0a5780638adff8ba14610b735761025c565b8063546eb586116101dd57806366225ff9116101a157806366225ff914610733578063715018a61461087157806371f3ff90146108885780637250e224146108b657806377c459131461090757806377f3312b14610a2f5761025c565b8063546eb5861461058c5780635da09b88146105d15780635f6cf4c81461063a5780635f8a5afa146106cb578063644241db1461071c5761025c565b806337b2f92c1161022457806337b2f92c146103e857806341c0e1b51461042357806348bfaef81461043a578063500422031461051657806350b45241146105515761025c565b8063112940f9146102615780631154501c146102b257806317d4a4911461031657806324cb16691461037f57806326d529b4146103ba575b600080fd5b34801561026d57600080fd5b506102b06004803603602081101561028457600080fd5b81019080803573ffffffffffffffffffffffffffffffffffffffff169060200190929190505050611019565b005b3480156102be57600080fd5b506102eb600480360360208110156102d557600080fd5b8101908080359060200190929190505050611037565b6040518085815260200184815260200183815260200182815260200194505050505060405180910390f35b34801561032257600080fd5b506103656004803603602081101561033957600080fd5b81019080803573ffffffffffffffffffffffffffffffffffffffff1690602001909291905050506110b1565b604051808215151515815260200191505060405180910390f35b34801561038b57600080fd5b506103b8600480360360208110156103a257600080fd5b81019080803590602001909291905050506110ce565b005b6103e6600480360360208110156103d057600080fd5b8101908080359060200190929190505050611273565b005b3480156103f457600080fd5b506104216004803603602081101561040b57600080fd5b81019080803590602001909291905050506115a2565b005b34801561042f57600080fd5b50610438611747565b005b34801561044657600080fd5b506105146004803603606081101561045d57600080fd5b81019080803590602001909291908035906020019064010000000081111561048457600080fd5b82018360208201111561049657600080fd5b803590602001918460018302840111640100000000831117156104b857600080fd5b91908080601f016020809104026020016040519081016040528093929190818152602001838380828437600081840152601f19601f820116905080830192505050505050509192919290803590602001909291905050506117e7565b005b34801561052257600080fd5b5061054f6004803603602081101561053957600080fd5b8101908080359060200190929190505050611c8e565b005b34801561055d57600080fd5b5061058a6004803603602081101561057457600080fd5b8101908080359060200190929190505050611e33565b005b34801561059857600080fd5b506105cf600480360360408110156105af57600080fd5b810190808035906020019092919080359060200190929190505050611fd8565b005b3480156105dd57600080fd5b50610620600480360360208110156105f457600080fd5b81019080803573ffffffffffffffffffffffffffffffffffffffff169060200190929190505050612199565b604051808215151515815260200191505060405180910390f35b34801561064657600080fd5b506106896004803603602081101561065d57600080fd5b81019080803573ffffffffffffffffffffffffffffffffffffffff1690602001909291905050506121b6565b604051808273ffffffffffffffffffffffffffffffffffffffff1673ffffffffffffffffffffffffffffffffffffffff16815260200191505060405180910390f35b3480156106d757600080fd5b5061071a600480360360208110156106ee57600080fd5b81019080803573ffffffffffffffffffffffffffffffffffffffff1690602001909291905050506121c0565b005b34801561072857600080fd5b506107316121de565b005b34801561073f57600080fd5b5061076c6004803603602081101561075657600080fd5b81019080803590602001909291905050506121e9565b6040518089815260200188815260200187815260200186601281111561078e57fe5b60ff1681526020018573ffffffffffffffffffffffffffffffffffffffff1673ffffffffffffffffffffffffffffffffffffffff1681526020018473ffffffffffffffffffffffffffffffffffffffff1673ffffffffffffffffffffffffffffffffffffffff1681526020018373ffffffffffffffffffffffffffffffffffffffff1673ffffffffffffffffffffffffffffffffffffffff1681526020018273ffffffffffffffffffffffffffffffffffffffff1673ffffffffffffffffffffffffffffffffffffffff1681526020019850505050505050505060405180910390f35b34801561087d57600080fd5b50610886612556565b005b6108b46004803603602081101561089e57600080fd5b8101908080359060200190929190505050612626565b005b3480156108c257600080fd5b50610905600480360360208110156108d957600080fd5b81019080803573ffffffffffffffffffffffffffffffffffffffff1690602001909291905050506127cb565b005b34801561091357600080fd5b506109406004803603602081101561092a57600080fd5b81019080803590602001909291905050506127e9565b604051808681526020018581526020018473ffffffffffffffffffffffffffffffffffffffff1673ffffffffffffffffffffffffffffffffffffffff1681526020018373ffffffffffffffffffffffffffffffffffffffff1673ffffffffffffffffffffffffffffffffffffffff16815260200180602001828103825283818151815260200191508051906020019080838360005b838110156109f05780820151818401526020810190506109d5565b50505050905090810190601f168015610a1d5780820380516001836020036101000a031916815260200191505b50965050505050505060405180910390f35b348015610a3b57600080fd5b50610a7260048036036040811015610a5257600080fd5b810190808035906020019092919080359060200190929190505050612b3b565b005b348015610a8057600080fd5b50610ac360048036036020811015610a9757600080fd5b81019080803573ffffffffffffffffffffffffffffffffffffffff169060200190929190505050612cfe565b005b348015610ad157600080fd5b50610ada612d1c565b005b610b0860048036036020811015610af257600080fd5b8101908080359060200190929190505050612d27565b005b348015610b1657600080fd5b50610b5960048036036020811015610b2d57600080fd5b81019080803573ffffffffffffffffffffffffffffffffffffffff169060200190929190505050612ecb565b604051808215151515815260200191505060405180910390f35b348015610b7f57600080fd5b50610bb660048036036040811015610b9657600080fd5b810190808035906020019092919080359060200190929190505050612ee8565b005b348015610bc457600080fd5b50610c0760048036036020811015610bdb57600080fd5b81019080803573ffffffffffffffffffffffffffffffffffffffff1690602001909291905050506130ab565b005b348015610c1557600080fd5b50610c5860048036036020811015610c2c57600080fd5b81019080803573ffffffffffffffffffffffffffffffffffffffff1690602001909291905050506130c9565b604051808215151515815260200191505060405180910390f35b348015610c7e57600080fd5b50610c876130e6565b604051808215151515815260200191505060405180910390f35b348015610cad57600080fd5b50610cda60048036036020811015610cc457600080fd5b810190808035906020019092919050505061313d565b005b610d0860048036036020811015610cf257600080fd5b81019080803590602001909291905050506132e2565b005b348015610d1657600080fd5b50610d5960048036036020811015610d2d57600080fd5b81019080803573ffffffffffffffffffffffffffffffffffffffff169060200190929190505050613611565b005b348015610d6757600080fd5b50610daa60048036036020811015610d7e57600080fd5b81019080803573ffffffffffffffffffffffffffffffffffffffff16906020019092919050505061361d565b604051808215151515815260200191505060405180910390f35b610df060048036036020811015610dda57600080fd5b810190808035906020019092919050505061363a565b005b348015610dfe57600080fd5b50610e2b60048036036020811015610e1557600080fd5b81019080803590602001909291905050506137df565b005b348015610e3957600080fd5b50610e42613984565b005b610e7060048036036020811015610e5a57600080fd5b810190808035906020019092919050505061398f565b005b348015610e7e57600080fd5b50610e87613d13565b604051808273ffffffffffffffffffffffffffffffffffffffff1673ffffffffffffffffffffffffffffffffffffffff16815260200191505060405180910390f35b348015610ed557600080fd5b50610f0c60048036036040811015610eec57600080fd5b810190808035906020019092919080359060200190929190505050613d3c565b005b348015610f1a57600080fd5b50610f5d60048036036020811015610f3157600080fd5b81019080803573ffffffffffffffffffffffffffffffffffffffff169060200190929190505050613efd565b005b348015610f6b57600080fd5b50610fae60048036036020811015610f8257600080fd5b81019080803573ffffffffffffffffffffffffffffffffffffffff169060200190929190505050613f1a565b005b348015610fbc57600080fd5b50610fe960048036036020811015610fd357600080fd5b8101908080359060200190929190505050613f26565b005b6110176004803603602081101561100157600080fd5b81019080803590602001909291905050506140cb565b005b61102233612ecb565b61102b57600080fd5b611034816143fa565b50565b6000806000806110456149b2565b600a6000878152602001908152602001600020604051806080016040529081600082015481526020016001820154815260200160028201548152602001600382015481525050905080600001518160200151826040015183606001519450945094509450509193509193565b60006110c782600361445490919063ffffffff16565b9050919050565b6110d7336130c9565b6110e057600080fd5b80600360128111156110ee57fe5b6009600083815260200190815260200160002060050160009054906101000a900460ff16601281111561111d57fe5b1461112757600080fd5b6009600083815260200190815260200160002060020160009054906101000a900473ffffffffffffffffffffffffffffffffffffffff168073ffffffffffffffffffffffffffffffffffffffff163373ffffffffffffffffffffffffffffffffffffffff16146111ff576040517f08c379a00000000000000000000000000000000000000000000000000000000081526004018080602001828103825260208152602001807f4f6e6c7920776974682076616c6964206164647265737320706f737369626c6581525060200191505060405180910390fd5b60046009600085815260200190815260200160002060050160006101000a81548160ff0219169083601281111561123257fe5b02179055507fc8ca2150e6e1849a10ef5aa4932060fa353bcacdffeb150c9e1890c6ab9403cc836040518082815260200191505060405180910390a1505050565b61127c33612199565b61128557600080fd5b80600d601281111561129357fe5b6009600083815260200190815260200160002060050160009054906101000a900460ff1660128111156112c257fe5b146112cc57600080fd5b600960008381526020019081526020016000206006015480341015611359576040517f08c379a00000000000000000000000000000000000000000000000000000000081526004018080602001828103825260158152602001807f4e6f7420656e6f756768206d6f6e65792070616964000000000000000000000081525060200191505060405180910390fd5b8233600060096000848152602001908152602001600020600601549050600081340390508273ffffffffffffffffffffffffffffffffffffffff166108fc829081150290604051600060405180830381858888f193505050501580156113c3573d6000803e3d6000fd5b506000611405600960008a815260200190815260200160002060070160009054906101000a900473ffffffffffffffffffffffffffffffffffffffff166121b6565b90508073ffffffffffffffffffffffffffffffffffffffff166108fc600960008b8152602001908152602001600020600601549081150290604051600060405180830381858888f19350505050158015611463573d6000803e3d6000fd5b5033600960008a815260200190815260200160002060020160006101000a81548173ffffffffffffffffffffffffffffffffffffffff021916908373ffffffffffffffffffffffffffffffffffffffff16021790555033600960008a815260200190815260200160002060090160006101000a81548173ffffffffffffffffffffffffffffffffffffffff021916908373ffffffffffffffffffffffffffffffffffffffff160217905550600e600960008a815260200190815260200160002060050160006101000a81548160ff0219169083601281111561154157fe5b021790555043600a60008a8152602001908152602001600020600201819055507faa7352d10146444c3afd9bd7fb0ae56b0a85e81139536bbec3f1f660fddd7be1886040518082815260200191505060405180910390a15050505050505050565b6115ab33612199565b6115b457600080fd5b80600f60128111156115c257fe5b6009600083815260200190815260200160002060050160009054906101000a900460ff1660128111156115f157fe5b146115fb57600080fd5b6009600083815260200190815260200160002060020160009054906101000a900473ffffffffffffffffffffffffffffffffffffffff168073ffffffffffffffffffffffffffffffffffffffff163373ffffffffffffffffffffffffffffffffffffffff16146116d3576040517f08c379a00000000000000000000000000000000000000000000000000000000081526004018080602001828103825260208152602001807f4f6e6c7920776974682076616c6964206164647265737320706f737369626c6581525060200191505060405180910390fd5b60106009600085815260200190815260200160002060050160006101000a81548160ff0219169083601281111561170657fe5b02179055507f322f34e90f2269750b3e28178631d975cc678db36f21098fe548b7f755ce0bd0836040518082815260200191505060405180910390a1505050565b600660009054906101000a900473ffffffffffffffffffffffffffffffffffffffff1673ffffffffffffffffffffffffffffffffffffffff163373ffffffffffffffffffffffffffffffffffffffff1614156117e55760006117ca600660009054906101000a900473ffffffffffffffffffffffffffffffffffffffff166121b6565b90508073ffffffffffffffffffffffffffffffffffffffff16ff5b565b6117f03361361d565b6117f957600080fd5b6000806000806118076149da565b6008548160000181815250508781602001818152505033816040019073ffffffffffffffffffffffffffffffffffffffff16908173ffffffffffffffffffffffffffffffffffffffff168152505033816060019073ffffffffffffffffffffffffffffffffffffffff16908173ffffffffffffffffffffffffffffffffffffffff168152505086816080018190525060008160a0019060128111156118a857fe5b908160128111156118b557fe5b81525050858160c0018181525050848160e0019073ffffffffffffffffffffffffffffffffffffffff16908173ffffffffffffffffffffffffffffffffffffffff16815250508381610100019073ffffffffffffffffffffffffffffffffffffffff16908173ffffffffffffffffffffffffffffffffffffffff16815250508281610120019073ffffffffffffffffffffffffffffffffffffffff16908173ffffffffffffffffffffffffffffffffffffffff16815250508181610140019073ffffffffffffffffffffffffffffffffffffffff16908173ffffffffffffffffffffffffffffffffffffffff168152505080600960008a8152602001908152602001600020600082015181600001556020820151816001015560408201518160020160006101000a81548173ffffffffffffffffffffffffffffffffffffffff021916908373ffffffffffffffffffffffffffffffffffffffff16021790555060608201518160030160006101000a81548173ffffffffffffffffffffffffffffffffffffffff021916908373ffffffffffffffffffffffffffffffffffffffff1602179055506080820151816004019080519060200190611a78929190614ac3565b5060a08201518160050160006101000a81548160ff02191690836012811115611a9d57fe5b021790555060c0820151816006015560e08201518160070160006101000a81548173ffffffffffffffffffffffffffffffffffffffff021916908373ffffffffffffffffffffffffffffffffffffffff1602179055506101008201518160080160006101000a81548173ffffffffffffffffffffffffffffffffffffffff021916908373ffffffffffffffffffffffffffffffffffffffff1602179055506101208201518160090160006101000a81548173ffffffffffffffffffffffffffffffffffffffff021916908373ffffffffffffffffffffffffffffffffffffffff16021790555061014082015181600a0160006101000a81548173ffffffffffffffffffffffffffffffffffffffff021916908373ffffffffffffffffffffffffffffffffffffffff1602179055509050506000611bd86149b2565b8181600001818152505081816020018181525050818160400181815250508181606001818152505080600a60008c8152602001908152602001600020600082015181600001556020820151816001015560408201518160020155606082015181600301559050506001600854016008819055507fe8a027a2bb83abbf6ec926b84d4aeb91585c16b58b27b8d0f0fb451566a552118a6040518082815260200191505060405180910390a150505050505050505050565b611c97336110b1565b611ca057600080fd5b80600a6012811115611cae57fe5b6009600083815260200190815260200160002060050160009054906101000a900460ff166012811115611cdd57fe5b14611ce757600080fd5b6009600083815260200190815260200160002060020160009054906101000a900473ffffffffffffffffffffffffffffffffffffffff168073ffffffffffffffffffffffffffffffffffffffff163373ffffffffffffffffffffffffffffffffffffffff1614611dbf576040517f08c379a00000000000000000000000000000000000000000000000000000000081526004018080602001828103825260208152602001807f4f6e6c7920776974682076616c6964206164647265737320706f737369626c6581525060200191505060405180910390fd5b600b6009600085815260200190815260200160002060050160006101000a81548160ff02191690836012811115611df257fe5b02179055507f5fc421e1448c4300040cbf06d1cae916e7f78e8efc65d9e76ba3970fcacbb08c836040518082815260200191505060405180910390a1505050565b611e3c336130c9565b611e4557600080fd5b8060046012811115611e5357fe5b6009600083815260200190815260200160002060050160009054906101000a900460ff166012811115611e8257fe5b14611e8c57600080fd5b6009600083815260200190815260200160002060020160009054906101000a900473ffffffffffffffffffffffffffffffffffffffff168073ffffffffffffffffffffffffffffffffffffffff163373ffffffffffffffffffffffffffffffffffffffff1614611f64576040517f08c379a00000000000000000000000000000000000000000000000000000000081526004018080602001828103825260208152602001807f4f6e6c7920776974682076616c6964206164647265737320706f737369626c6581525060200191505060405180910390fd5b60056009600085815260200190815260200160002060050160006101000a81548160ff02191690836012811115611f9757fe5b02179055507f5725e53fd0efed5294b7db2af148f040264a63630b4deb0afbccf6e60830988a836040518082815260200191505060405180910390a1505050565b611fe133612199565b611fea57600080fd5b8160106012811115611ff857fe5b6009600083815260200190815260200160002060050160009054906101000a900460ff16601281111561202757fe5b1461203157600080fd5b6009600084815260200190815260200160002060020160009054906101000a900473ffffffffffffffffffffffffffffffffffffffff168073ffffffffffffffffffffffffffffffffffffffff163373ffffffffffffffffffffffffffffffffffffffff1614612109576040517f08c379a00000000000000000000000000000000000000000000000000000000081526004018080602001828103825260208152602001807f4f6e6c7920776974682076616c6964206164647265737320706f737369626c6581525060200191505060405180910390fd5b60116009600086815260200190815260200160002060050160006101000a81548160ff0219169083601281111561213c57fe5b02179055508260096000868152602001908152602001600020600601819055507f59e7ad085805e2b02ad4b0f8033bd75e7ee4c8cd43f996267463585e35896252846040518082815260200191505060405180910390a150505050565b60006121af82600461445490919063ffffffff16565b9050919050565b6000819050919050565b6121c9336110b1565b6121d257600080fd5b6121db816144ad565b50565b6121e733614507565b565b6000806000806000806000806121fd6149da565b600960008b81526020019081526020016000206040518061016001604052908160008201548152602001600182015481526020016002820160009054906101000a900473ffffffffffffffffffffffffffffffffffffffff1673ffffffffffffffffffffffffffffffffffffffff1673ffffffffffffffffffffffffffffffffffffffff1681526020016003820160009054906101000a900473ffffffffffffffffffffffffffffffffffffffff1673ffffffffffffffffffffffffffffffffffffffff1673ffffffffffffffffffffffffffffffffffffffff168152602001600482018054600181600116156101000203166002900480601f0160208091040260200160405190810160405280929190818152602001828054600181600116156101000203166002900480156123755780601f1061234a57610100808354040283529160200191612375565b820191906000526020600020905b81548152906001019060200180831161235857829003601f168201915b505050505081526020016005820160009054906101000a900460ff16601281111561239c57fe5b60128111156123a757fe5b8152602001600682015481526020016007820160009054906101000a900473ffffffffffffffffffffffffffffffffffffffff1673ffffffffffffffffffffffffffffffffffffffff1673ffffffffffffffffffffffffffffffffffffffff1681526020016008820160009054906101000a900473ffffffffffffffffffffffffffffffffffffffff1673ffffffffffffffffffffffffffffffffffffffff1673ffffffffffffffffffffffffffffffffffffffff1681526020016009820160009054906101000a900473ffffffffffffffffffffffffffffffffffffffff1673ffffffffffffffffffffffffffffffffffffffff1673ffffffffffffffffffffffffffffffffffffffff168152602001600a820160009054906101000a900473ffffffffffffffffffffffffffffffffffffffff1673ffffffffffffffffffffffffffffffffffffffff1673ffffffffffffffffffffffffffffffffffffffff16815250509050806000015181602001518260c001518360a001518460e001518561010001518661012001518761014001519850985098509850985098509850985050919395975091939597565b61255e6130e6565b61256757600080fd5b600073ffffffffffffffffffffffffffffffffffffffff166000809054906101000a900473ffffffffffffffffffffffffffffffffffffffff1673ffffffffffffffffffffffffffffffffffffffff167f5c486528ec3e3f0ea91181cff8116f02bfa350e03b8b6f12e00765adbb5af85c60405160405180910390a360008060006101000a81548173ffffffffffffffffffffffffffffffffffffffff021916908373ffffffffffffffffffffffffffffffffffffffff160217905550565b61262f3361361d565b61263857600080fd5b806002601281111561264657fe5b6009600083815260200190815260200160002060050160009054906101000a900460ff16601281111561267557fe5b1461267f57600080fd5b6009600083815260200190815260200160002060030160009054906101000a900473ffffffffffffffffffffffffffffffffffffffff168073ffffffffffffffffffffffffffffffffffffffff163373ffffffffffffffffffffffffffffffffffffffff1614612757576040517f08c379a00000000000000000000000000000000000000000000000000000000081526004018080602001828103825260208152602001807f4f6e6c7920776974682076616c6964206164647265737320706f737369626c6581525060200191505060405180910390fd5b60036009600085815260200190815260200160002060050160006101000a81548160ff0219169083601281111561278a57fe5b02179055507fe6ae062d51064ae2a5a31a72fcb1bee1d343fdc6bddc1d3dfce658ece4f03212836040518082815260200191505060405180910390a1505050565b6127d4336130c9565b6127dd57600080fd5b6127e681614561565b50565b60008060008060606127f96149da565b600960008881526020019081526020016000206040518061016001604052908160008201548152602001600182015481526020016002820160009054906101000a900473ffffffffffffffffffffffffffffffffffffffff1673ffffffffffffffffffffffffffffffffffffffff1673ffffffffffffffffffffffffffffffffffffffff1681526020016003820160009054906101000a900473ffffffffffffffffffffffffffffffffffffffff1673ffffffffffffffffffffffffffffffffffffffff1673ffffffffffffffffffffffffffffffffffffffff168152602001600482018054600181600116156101000203166002900480601f0160208091040260200160405190810160405280929190818152602001828054600181600116156101000203166002900480156129715780601f1061294657610100808354040283529160200191612971565b820191906000526020600020905b81548152906001019060200180831161295457829003601f168201915b505050505081526020016005820160009054906101000a900460ff16601281111561299857fe5b60128111156129a357fe5b8152602001600682015481526020016007820160009054906101000a900473ffffffffffffffffffffffffffffffffffffffff1673ffffffffffffffffffffffffffffffffffffffff1673ffffffffffffffffffffffffffffffffffffffff1681526020016008820160009054906101000a900473ffffffffffffffffffffffffffffffffffffffff1673ffffffffffffffffffffffffffffffffffffffff1673ffffffffffffffffffffffffffffffffffffffff1681526020016009820160009054906101000a900473ffffffffffffffffffffffffffffffffffffffff1673ffffffffffffffffffffffffffffffffffffffff1673ffffffffffffffffffffffffffffffffffffffff168152602001600a820160009054906101000a900473ffffffffffffffffffffffffffffffffffffffff1673ffffffffffffffffffffffffffffffffffffffff1673ffffffffffffffffffffffffffffffffffffffff1681525050905080600001518160200151826040015183606001518460800151809050955095509550955095505091939590929450565b612b44336110b1565b612b4d57600080fd5b81600c6012811115612b5b57fe5b6009600083815260200190815260200160002060050160009054906101000a900460ff166012811115612b8a57fe5b14612b9457600080fd5b6009600084815260200190815260200160002060020160009054906101000a900473ffffffffffffffffffffffffffffffffffffffff168073ffffffffffffffffffffffffffffffffffffffff163373ffffffffffffffffffffffffffffffffffffffff1614612c6c576040517f08c379a00000000000000000000000000000000000000000000000000000000081526004018080602001828103825260208152602001807f4f6e6c7920776974682076616c6964206164647265737320706f737369626c6581525060200191505060405180910390fd5b600d6009600086815260200190815260200160002060050160006101000a81548160ff02191690836012811115612c9f57fe5b02179055508260096000868152602001908152602001600020600601819055507faec623c8803eb3c795344cb3d2178da45139e85d984a1dc348cf9dc8bd7ff1606007546040518082815260200191505060405180910390a150505050565b612d073361361d565b612d1057600080fd5b612d19816145bb565b50565b612d2533614615565b565b612d30336130c9565b612d3957600080fd5b8060086012811115612d4757fe5b6009600083815260200190815260200160002060050160009054906101000a900460ff166012811115612d7657fe5b14612d8057600080fd5b6009600083815260200190815260200160002060020160009054906101000a900473ffffffffffffffffffffffffffffffffffffffff168073ffffffffffffffffffffffffffffffffffffffff163373ffffffffffffffffffffffffffffffffffffffff1614612e58576040517f08c379a00000000000000000000000000000000000000000000000000000000081526004018080602001828103825260208152602001807f4f6e6c7920776974682076616c6964206164647265737320706f737369626c6581525060200191505060405180910390fd5b600980600085815260200190815260200160002060050160006101000a81548160ff02191690836012811115612e8a57fe5b02179055507fc5c33776d405e5686e4386e1ef31a65cf6195e4f7ceb8808ab64d05b6ccbc2a6836040518082815260200191505060405180910390a1505050565b6000612ee182600561445490919063ffffffff16565b9050919050565b612ef1336130c9565b612efa57600080fd5b8160066012811115612f0857fe5b6009600083815260200190815260200160002060050160009054906101000a900460ff166012811115612f3757fe5b14612f4157600080fd5b6009600084815260200190815260200160002060020160009054906101000a900473ffffffffffffffffffffffffffffffffffffffff168073ffffffffffffffffffffffffffffffffffffffff163373ffffffffffffffffffffffffffffffffffffffff1614613019576040517f08c379a00000000000000000000000000000000000000000000000000000000081526004018080602001828103825260208152602001807f4f6e6c7920776974682076616c6964206164647265737320706f737369626c6581525060200191505060405180910390fd5b60076009600086815260200190815260200160002060050160006101000a81548160ff0219169083601281111561304c57fe5b02179055508260096000868152602001908152602001600020600601819055507f539b4a835a8a5d1bc5756a9f146e2bfeaa6bd6b1fa77a7631c0a5154c86cdd036007546040518082815260200191505060405180910390a150505050565b6130b433612199565b6130bd57600080fd5b6130c68161466f565b50565b60006130df82600261445490919063ffffffff16565b9050919050565b60008060009054906101000a900473ffffffffffffffffffffffffffffffffffffffff1673ffffffffffffffffffffffffffffffffffffffff163373ffffffffffffffffffffffffffffffffffffffff1614905090565b613146336130c9565b61314f57600080fd5b806005601281111561315d57fe5b6009600083815260200190815260200160002060050160009054906101000a900460ff16601281111561318c57fe5b1461319657600080fd5b6009600083815260200190815260200160002060020160009054906101000a900473ffffffffffffffffffffffffffffffffffffffff168073ffffffffffffffffffffffffffffffffffffffff163373ffffffffffffffffffffffffffffffffffffffff161461326e576040517f08c379a00000000000000000000000000000000000000000000000000000000081526004018080602001828103825260208152602001807f4f6e6c7920776974682076616c6964206164647265737320706f737369626c6581525060200191505060405180910390fd5b60066009600085815260200190815260200160002060050160006101000a81548160ff021916908360128111156132a157fe5b02179055507f333218d47e0180cbd408e6357e302656538b32c5b2127e81f72beec87e196e4e836040518082815260200191505060405180910390a1505050565b6132eb336110b1565b6132f457600080fd5b806007601281111561330257fe5b6009600083815260200190815260200160002060050160009054906101000a900460ff16601281111561333157fe5b1461333b57600080fd5b6009600083815260200190815260200160002060060154803410156133c8576040517f08c379a00000000000000000000000000000000000000000000000000000000081526004018080602001828103825260158152602001807f4e6f7420656e6f756768206d6f6e65792070616964000000000000000000000081525060200191505060405180910390fd5b8233600060096000848152602001908152602001600020600601549050600081340390508273ffffffffffffffffffffffffffffffffffffffff166108fc829081150290604051600060405180830381858888f19350505050158015613432573d6000803e3d6000fd5b506000613474600960008a815260200190815260200160002060080160009054906101000a900473ffffffffffffffffffffffffffffffffffffffff166121b6565b90508073ffffffffffffffffffffffffffffffffffffffff166108fc600960008b8152602001908152602001600020600601549081150290604051600060405180830381858888f193505050501580156134d2573d6000803e3d6000fd5b5033600960008a815260200190815260200160002060020160006101000a81548173ffffffffffffffffffffffffffffffffffffffff021916908373ffffffffffffffffffffffffffffffffffffffff16021790555033600960008a815260200190815260200160002060080160006101000a81548173ffffffffffffffffffffffffffffffffffffffff021916908373ffffffffffffffffffffffffffffffffffffffff1602179055506008600960008a815260200190815260200160002060050160006101000a81548160ff021916908360128111156135b057fe5b021790555043600a60008a8152602001908152602001600020600101819055507fb440ff508b4714f01c34e25032a6e23377f47c0f9c56d4fcdd11bb2b6cd59747886040518082815260200191505060405180910390a15050505050505050565b61361a816146c9565b50565b600061363382600161445490919063ffffffff16565b9050919050565b613643336110b1565b61364c57600080fd5b80600e601281111561365a57fe5b6009600083815260200190815260200160002060050160009054906101000a900460ff16601281111561368957fe5b1461369357600080fd5b6009600083815260200190815260200160002060020160009054906101000a900473ffffffffffffffffffffffffffffffffffffffff168073ffffffffffffffffffffffffffffffffffffffff163373ffffffffffffffffffffffffffffffffffffffff161461376b576040517f08c379a00000000000000000000000000000000000000000000000000000000081526004018080602001828103825260208152602001807f4f6e6c7920776974682076616c6964206164647265737320706f737369626c6581525060200191505060405180910390fd5b600f6009600085815260200190815260200160002060050160006101000a81548160ff0219169083601281111561379e57fe5b02179055507f25727bef8a186dd95a062151451f2d651551b53124c18208d7653b1217ae31ba836040518082815260200191505060405180910390a1505050565b6137e8336110b1565b6137f157600080fd5b80600b60128111156137ff57fe5b6009600083815260200190815260200160002060050160009054906101000a900460ff16601281111561382e57fe5b1461383857600080fd5b6009600083815260200190815260200160002060020160009054906101000a900473ffffffffffffffffffffffffffffffffffffffff168073ffffffffffffffffffffffffffffffffffffffff163373ffffffffffffffffffffffffffffffffffffffff1614613910576040517f08c379a00000000000000000000000000000000000000000000000000000000081526004018080602001828103825260208152602001807f4f6e6c7920776974682076616c6964206164647265737320706f737369626c6581525060200191505060405180910390fd5b600c6009600085815260200190815260200160002060050160006101000a81548160ff0219169083601281111561394357fe5b02179055507fa7b003a1dbc9dd0c8729f466ae4b80414f30a2af80950e05fe03e6305dab430d836040518082815260200191505060405180910390a1505050565b61398d33614723565b565b61399833612ecb565b6139a157600080fd5b80601160128111156139af57fe5b6009600083815260200190815260200160002060050160009054906101000a900460ff1660128111156139de57fe5b146139e857600080fd5b600960008381526020019081526020016000206006015480341015613a75576040517f08c379a00000000000000000000000000000000000000000000000000000000081526004018080602001828103825260158152602001807f4e6f7420656e6f756768206d6f6e65792070616964000000000000000000000081525060200191505060405180910390fd5b8233600060096000848152602001908152602001600020600601549050600081340390508273ffffffffffffffffffffffffffffffffffffffff166108fc829081150290604051600060405180830381858888f19350505050158015613adf573d6000803e3d6000fd5b503360096000898152602001908152602001600020600a0160006101000a81548173ffffffffffffffffffffffffffffffffffffffff021916908373ffffffffffffffffffffffffffffffffffffffff1602179055506000613b76600960008a815260200190815260200160002060090160009054906101000a900473ffffffffffffffffffffffffffffffffffffffff166121b6565b90508073ffffffffffffffffffffffffffffffffffffffff166108fc600960008b8152602001908152602001600020600601549081150290604051600060405180830381858888f19350505050158015613bd4573d6000803e3d6000fd5b5033600960008a815260200190815260200160002060020160006101000a81548173ffffffffffffffffffffffffffffffffffffffff021916908373ffffffffffffffffffffffffffffffffffffffff16021790555033600960008a8152602001908152602001600020600a0160006101000a81548173ffffffffffffffffffffffffffffffffffffffff021916908373ffffffffffffffffffffffffffffffffffffffff1602179055506012600960008a815260200190815260200160002060050160006101000a81548160ff02191690836012811115613cb257fe5b021790555043600a60008a8152602001908152602001600020600301819055507fc7e94446a942a0541d0224ece380a730c85f03db7188fca783225da9255929f7886040518082815260200191505060405180910390a15050505050505050565b60008060009054906101000a900473ffffffffffffffffffffffffffffffffffffffff16905090565b613d453361361d565b613d4e57600080fd5b8160006012811115613d5c57fe5b6009600083815260200190815260200160002060050160009054906101000a900460ff166012811115613d8b57fe5b14613d9557600080fd5b6009600084815260200190815260200160002060020160009054906101000a900473ffffffffffffffffffffffffffffffffffffffff168073ffffffffffffffffffffffffffffffffffffffff163373ffffffffffffffffffffffffffffffffffffffff1614613e6d576040517f08c379a00000000000000000000000000000000000000000000000000000000081526004018080602001828103825260208152602001807f4f6e6c7920776974682076616c6964206164647265737320706f737369626c6581525060200191505060405180910390fd5b60016009600086815260200190815260200160002060050160006101000a81548160ff02191690836012811115613ea057fe5b02179055508260096000868152602001908152602001600020600601819055507f7a02b5a0b1f928cffcafd0e750f369a40f124f4f34f65801fe1f0d945b9a7915846040518082815260200191505060405180910390a150505050565b613f056130e6565b613f0e57600080fd5b613f178161477d565b50565b613f2381614875565b50565b613f2f336110b1565b613f3857600080fd5b8060096012811115613f4657fe5b6009600083815260200190815260200160002060050160009054906101000a900460ff166012811115613f7557fe5b14613f7f57600080fd5b6009600083815260200190815260200160002060020160009054906101000a900473ffffffffffffffffffffffffffffffffffffffff168073ffffffffffffffffffffffffffffffffffffffff163373ffffffffffffffffffffffffffffffffffffffff1614614057576040517f08c379a00000000000000000000000000000000000000000000000000000000081526004018080602001828103825260208152602001807f4f6e6c7920776974682076616c6964206164647265737320706f737369626c6581525060200191505060405180910390fd5b600a6009600085815260200190815260200160002060050160006101000a81548160ff0219169083601281111561408a57fe5b02179055507f93c3a2ac0f7ddbc4cd65eaa2a13e4ff3b6b4e3d7ce8eb23bf7b190d829e4abbb836040518082815260200191505060405180910390a1505050565b6140d4336130c9565b6140dd57600080fd5b80600160128111156140eb57fe5b6009600083815260200190815260200160002060050160009054906101000a900460ff16601281111561411a57fe5b1461412457600080fd5b6009600083815260200190815260200160002060060154803410156141b1576040517f08c379a00000000000000000000000000000000000000000000000000000000081526004018080602001828103825260158152602001807f4e6f7420656e6f756768206d6f6e65792070616964000000000000000000000081525060200191505060405180910390fd5b8233600060096000848152602001908152602001600020600601549050600081340390508273ffffffffffffffffffffffffffffffffffffffff166108fc829081150290604051600060405180830381858888f1935050505015801561421b573d6000803e3d6000fd5b50600061425d600960008a815260200190815260200160002060030160009054906101000a900473ffffffffffffffffffffffffffffffffffffffff166121b6565b90508073ffffffffffffffffffffffffffffffffffffffff166108fc600960008b8152602001908152602001600020600601549081150290604051600060405180830381858888f193505050501580156142bb573d6000803e3d6000fd5b5033600960008a815260200190815260200160002060020160006101000a81548173ffffffffffffffffffffffffffffffffffffffff021916908373ffffffffffffffffffffffffffffffffffffffff16021790555033600960008a815260200190815260200160002060070160006101000a81548173ffffffffffffffffffffffffffffffffffffffff021916908373ffffffffffffffffffffffffffffffffffffffff1602179055506002600960008a815260200190815260200160002060050160006101000a81548160ff0219169083601281111561439957fe5b021790555043600a60008a8152602001908152602001600020600001819055507facd9402b9f9e8c15fa7c1819f8393ca56eb61316cc354fc6ac2150aed3ce7931886040518082815260200191505060405180910390a15050505050505050565b61440e8160056148cf90919063ffffffff16565b8073ffffffffffffffffffffffffffffffffffffffff167f28b26e7a3d20aedbc5f8f2ebf7da671c0491723a2b78f47a097b0e46dee0714260405160405180910390a250565b60008260000160008373ffffffffffffffffffffffffffffffffffffffff1673ffffffffffffffffffffffffffffffffffffffff16815260200190815260200160002060009054906101000a900460ff16905092915050565b6144c18160036148cf90919063ffffffff16565b8073ffffffffffffffffffffffffffffffffffffffff167f561138658ca49a8540dc70dcfe64c9026c1c5b9344642242dd6562970f9c127860405160405180910390a250565b61451b81600261494190919063ffffffff16565b8073ffffffffffffffffffffffffffffffffffffffff167f126174f6cf49c81cdb4a9214c6b8f037bef55b4ec31e4fc776cea2a1c8a88d5960405160405180910390a250565b6145758160026148cf90919063ffffffff16565b8073ffffffffffffffffffffffffffffffffffffffff167fddbf200aa634dc3fb81cfd68583dd1040d1c751d335e1d86b631bde3e977fea860405160405180910390a250565b6145cf8160016148cf90919063ffffffff16565b8073ffffffffffffffffffffffffffffffffffffffff167f2e0ded4123377a3c2bc9a26f1717655a129e2f20752924d42e730ec89c83dbd060405160405180910390a250565b61462981600161494190919063ffffffff16565b8073ffffffffffffffffffffffffffffffffffffffff167fa5e0f060af304ab17dd418c7927e3da3ae7868189bf387aee09ab179ccc572f260405160405180910390a250565b6146838160046148cf90919063ffffffff16565b8073ffffffffffffffffffffffffffffffffffffffff167f71ae26cad02663e3d92efd6ec56031a80d74a20c0ab4183faa8bf262261c9baa60405160405180910390a250565b6146dd81600361494190919063ffffffff16565b8073ffffffffffffffffffffffffffffffffffffffff167f2fed5abf6a80d6dfe30b4895481b2fc5d7dce5f8f7b931832f4a2947d5040c7f60405160405180910390a250565b61473781600461494190919063ffffffff16565b8073ffffffffffffffffffffffffffffffffffffffff167fdb7176e79cffef81cb01767dd0447a0b24bb72ca9778d4b245581086b2a7e6db60405160405180910390a250565b600073ffffffffffffffffffffffffffffffffffffffff168173ffffffffffffffffffffffffffffffffffffffff1614156147b757600080fd5b8073ffffffffffffffffffffffffffffffffffffffff166000809054906101000a900473ffffffffffffffffffffffffffffffffffffffff1673ffffffffffffffffffffffffffffffffffffffff167f5c486528ec3e3f0ea91181cff8116f02bfa350e03b8b6f12e00765adbb5af85c60405160405180910390a3806000806101000a81548173ffffffffffffffffffffffffffffffffffffffff021916908373ffffffffffffffffffffffffffffffffffffffff16021790555050565b61488981600561494190919063ffffffff16565b8073ffffffffffffffffffffffffffffffffffffffff167fe3f5ed5f263f1f01764a96edfc7d025f511ec5f7d180e8816908b78bcf74f09860405160405180910390a250565b6148d98282614454565b156148e357600080fd5b60018260000160008373ffffffffffffffffffffffffffffffffffffffff1673ffffffffffffffffffffffffffffffffffffffff16815260200190815260200160002060006101000a81548160ff0219169083151502179055505050565b61494b8282614454565b61495457600080fd5b60008260000160008373ffffffffffffffffffffffffffffffffffffffff1673ffffffffffffffffffffffffffffffffffffffff16815260200190815260200160002060006101000a81548160ff0219169083151502179055505050565b6040518060800160405280600081526020016000815260200160008152602001600081525090565b6040518061016001604052806000815260200160008152602001600073ffffffffffffffffffffffffffffffffffffffff168152602001600073ffffffffffffffffffffffffffffffffffffffff1681526020016060815260200160006012811115614a4257fe5b815260200160008152602001600073ffffffffffffffffffffffffffffffffffffffff168152602001600073ffffffffffffffffffffffffffffffffffffffff168152602001600073ffffffffffffffffffffffffffffffffffffffff168152602001600073ffffffffffffffffffffffffffffffffffffffff1681525090565b828054600181600116156101000203166002900490600052602060002090601f016020900481019282601f10614b0457805160ff1916838001178555614b32565b82800160010185558215614b32579182015b82811115614b31578251825591602001919060010190614b16565b5b509050614b3f9190614b43565b5090565b614b6591905b80821115614b61576000816000905550600101614b49565b5090565b9056fea265627a7a72315820808079aa5e5aeaa1684881eba11faa9e70d59d2012ef116d524070e15c2cfe5d64736f6c63430005100032",
  "source": "// SPDX-License-Identifier: UNLICENSED\r\n\r\npragma solidity >=0.4.24;\r\n\r\n// inherit contracts \r\nimport '../accesscontrol/Ownable.sol';\r\nimport '../accesscontrol/Farmer.sol';\r\nimport '../accesscontrol/Distributor.sol';\r\nimport '../accesscontrol/Manufacturer.sol';\r\nimport '../accesscontrol/Retailer.sol';\r\nimport '../accesscontrol/Consumer.sol'; \r\n\r\n\r\n// Contract: Supply Chain\r\ncontract SupplyChain is Ownable, Farmer, DistributorRole, ManufacturerRole, RetailerRole, ConsumerRole {\r\n    // owner\r\n    address owner; \r\n\r\n    // Universal Product Code \r\n    uint upc;\r\n\r\n    // Stock Keeping Unit\r\n    uint sku;\r\n\r\n    // Define where we are in the chain\r\n    enum State {\r\n        ProduceByFarmer,             //1\r\n        ForSaleByFarmer,             //2\r\n        PurchasedByDistributor,      //3   \r\n        ShippedByFarmer,             //4\r\n        ReceivedByDistributor,       //5\r\n        ProcessedByDistributor,      //6\r\n        PackageByDistributor,        //7\r\n        ForSaleByDistributor,        //8\r\n        PurchasedByManufacturer,     //9\r\n        ShippedByDistributor,        //10\r\n        ReceivedByManufacturer,      //11\r\n        ProcessedByManufacturer,     //12\r\n        PackageByManufacturer,       //13\r\n        ForSaleByManufacturer,       //14\r\n        PurchasedByRetailer,         //15\r\n        ShippedByManufacturer,       //16\r\n        ReceivedByRetailer,          //17\r\n        ForSaleByRetailer,           //18\r\n        PurchasedByConsumer          //19\r\n    }\r\n\r\n    State constant defaultState = State.ProduceByFarmer;\r\n\r\n    // Item struct with relevant variables:\r\n    // POTENTIALLY TRACK MORE VARIABLES \r\n\r\n    struct Item {\r\n        uint    sku;                    // Stock Keeping Unit (SKU)\r\n        uint    upc;                    // Generated by Farmer -> can be verified by Consumer\r\n        address ownerID;                // Metamask-Ethereum address of the current owner as the product moves through stages\r\n        address originFarmerID;         // Metamask-Ethereum address of the Farmer\r\n        string  originFarmName;         // Farmer Name\r\n        State   itemState;              // Product State as represented in the enum above\r\n        uint    productPrice;           // Product Price\r\n        address distributorID;          // Metamask-Ethereum address of the Distributor\r\n        address manufacturerID;         // Metamask-Ethereum address of the Manufacturer\r\n        address retailerID;             // Metamask-Ethereum address of the Retailer\r\n        address consumerID;             // Metamask-Ethereum address of the Consumer\r\n    }\r\n\r\n    // public mapping: maps UPC to an item\r\n    mapping (uint => Item) items;  \r\n\r\n    // Block number stuct\r\n    struct Txblocks {\r\n        uint FTD; // blockfarmerToDistributor\r\n        uint DTM; // blockDistributorToManufacturer\r\n        uint MTR; // blockManufacturerToRetailer\r\n        uint RTC; // blockRetailerToConsumer\r\n    }\r\n\r\n    // track its an item's journey through the supply chain -- to be sent from DApp.\r\n    mapping (uint => Txblocks) itemsHistory;\r\n\r\n\r\n    // Define events to listen to\r\n    event ProduceByFarmer(uint upc);              //1\r\n    event ForSaleByFarmer(uint upc);              //2\r\n    event PurchasedByDistributor(uint upc);       //3   \r\n    event ShippedByFarmer(uint upc);              //4\r\n    event ReceivedByDistributor(uint upc);        //5\r\n    event ProcessedByDistributor(uint upc);       //6\r\n    event PackageByDistributor(uint upc);         //7\r\n    event ForSaleByDistributor(uint upc);         //8\r\n    event PurchasedByManufacturer(uint upc);      //9\r\n    event ShippedByDistributor(uint upc);         //10\r\n    event ReceivedByManufacturer(uint upc);       //11\r\n    event ProcessedByManufacturer(uint upc);      //12\r\n    event PackageByManufacturer(uint upc);        //13\r\n    event ForSaleByManufacturer(uint upc);        //14\r\n    event PurchasedByRetailer(uint upc);          //15\r\n    event ShippedByManufacturer(uint upc);        //16\r\n    event ReceivedByRetailer(uint upc);           //17\r\n    event ForSaleByRetailer(uint upc);            //18\r\n    event PurchasedByConsumer(uint upc);          //19\r\n\r\n    // Checks & Requirements\r\n\r\n    // Modifier = automatically check a condition prior to executing the function\r\n    \r\n    // Define a modifer that verifies the Caller\r\n    modifier verifyCaller (address _address) {\r\n        require(msg.sender == _address,\r\n        \"Only with valid address possible\"\r\n        );\r\n        _;\r\n    }\r\n    \r\n    // Define a modifier that checks if the paid amount is sufficient to cover the price\r\n    modifier paidEnough(uint _price) {\r\n        require(msg.value >= _price,\r\n        \"Not enough money paid\"\r\n        );\r\n        _;\r\n    }\r\n\r\n    // Define a modifier that checks the price and refunds the remaining balance\r\n    modifier checkValue(uint _upc, address payable addressToFund) {\r\n        uint _price = items[_upc].productPrice;\r\n        uint  amountToReturn = msg.value - _price;\r\n        addressToFund.transfer(amountToReturn);\r\n        _;\r\n    }\r\n\r\n\r\n    // Item State Modifiers\r\n    // 1\r\n    modifier producedByFarmer(uint _upc) {\r\n        require(items[_upc].itemState == State.ProduceByFarmer);\r\n        _;\r\n    }\r\n    // 2\r\n    modifier forSaleByFarmer(uint _upc) {\r\n        require(items[_upc].itemState == State.ForSaleByFarmer);\r\n        _;\r\n    }\r\n    // 3\r\n    modifier purchasedByDistributor(uint _upc) {\r\n        require(items[_upc].itemState == State.PurchasedByDistributor);\r\n        _;\r\n    }\r\n    // 4\r\n    modifier shippedByFarmer(uint _upc) {\r\n        require(items[_upc].itemState == State.ShippedByFarmer);\r\n        _;\r\n    }\r\n    // 5\r\n    modifier receivedByDistributor(uint _upc) {\r\n        require(items[_upc].itemState == State.ReceivedByDistributor);\r\n        _;\r\n    }\r\n    // 6\r\n    modifier processByDistributor(uint _upc) {\r\n        require(items[_upc].itemState == State.ProcessedByDistributor);\r\n        _;\r\n    }\r\n    // 7\r\n    modifier packagedByDistributor(uint _upc) {\r\n        require(items[_upc].itemState == State.PackageByDistributor);\r\n        _;\r\n    }\r\n    // 8\r\n    modifier forSaleByDistributor(uint _upc) {\r\n        require(items[_upc].itemState == State.ForSaleByDistributor);\r\n        _;\r\n    }\r\n    // 9\r\n    modifier purchasedByManufacturer(uint _upc) {\r\n        require(items[_upc].itemState == State.PurchasedByManufacturer);\r\n        _;\r\n    } \r\n    // 10\r\n    modifier shippedByDistributor(uint _upc) {\r\n        require(items[_upc].itemState == State.ShippedByDistributor);\r\n        _;\r\n    }\r\n    // 11\r\n    modifier receivedByManufacturer(uint _upc) {\r\n        require(items[_upc].itemState == State.ReceivedByManufacturer);\r\n        _;\r\n    } \r\n    // 12\r\n    modifier processedByManufacturer(uint _upc) {\r\n        require(items[_upc].itemState == State.ProcessedByManufacturer);\r\n        _;\r\n    }\r\n    // 13   \r\n    modifier packageByManufacturer(uint _upc) {\r\n        require(items[_upc].itemState == State.PackageByManufacturer);\r\n        _;\r\n    } \r\n    // 14\r\n    modifier forSaleByManufacturer(uint _upc) {\r\n        require(items[_upc].itemState == State.ForSaleByManufacturer);\r\n        _;\r\n    }\r\n    // 15\r\n    modifier purchasedByRetailer(uint _upc) {\r\n        require(items[_upc].itemState == State.PurchasedByRetailer);\r\n        _;\r\n    }\r\n    // 16\r\n    modifier shippedByManufacturer(uint _upc) {\r\n        require(items[_upc].itemState == State.ShippedByManufacturer);\r\n        _;\r\n    }\r\n    // 17\r\n    modifier receivedByRetailer(uint _upc) {\r\n        require(items[_upc].itemState == State.ReceivedByRetailer);\r\n        _;\r\n    }\r\n    // 18\r\n    modifier forSaleByRetailer(uint _upc) {\r\n        require(items[_upc].itemState == State.ForSaleByRetailer);\r\n        _;\r\n    }\r\n    // 19\r\n    modifier purchasedByConsumer(uint _upc) {\r\n        require(items[_upc].itemState == State.PurchasedByConsumer);\r\n        _;\r\n    }\r\n\r\n    // constructor setup owner sku upc CHANGED PAYABLE TO PUBLIC (WALI)\r\n    constructor() public {\r\n        owner = msg.sender;\r\n        sku = 1;\r\n        upc = 1;\r\n    }\r\n\r\n    // allows you to convert an address into a payable address\r\n    function _make_payable(address x) public pure returns (address payable) {\r\n        return address(uint160(x));\r\n    }\r\n\r\n    // Define a function 'kill'\r\n    function kill() public {\r\n        if (msg.sender == owner) { // best to use require here\r\n        address payable ownerAddressPayable = _make_payable(owner);\r\n        selfdestruct(ownerAddressPayable);\r\n        }\r\n    }\r\n\r\n    /*\r\n    1st step in supplychain\r\n    Allows farmer to create chocolate \r\n    */\r\n    function produceItemByFarmer(uint _upc, string memory _originFarmName, uint _price) public onlyFarmer(){\r\n        address distributorID; // Empty distributorID address\r\n        address manufacturerID; // Empty manufacturerID address\r\n        address retailerID; // Empty retailerID address\r\n        address consumerID; // Empty consumerID address\r\n\r\n        Item memory newProduce; // Create a new struct Item in memory\r\n        newProduce.sku = sku;  // Stock Keeping Unit (SKU)\r\n        newProduce.upc = _upc; // Universal Product Code (UPC), generated by the Farmer, goes on the package, can be verified by the Consumer\r\n\r\n        newProduce.ownerID = msg.sender;\r\n        newProduce.originFarmerID = msg.sender;\r\n        newProduce.originFarmName = _originFarmName;\r\n\r\n        newProduce.itemState = defaultState;\r\n        newProduce.productPrice = _price;  \r\n\r\n        newProduce.distributorID = distributorID;\r\n        newProduce.manufacturerID = manufacturerID;\r\n        newProduce.retailerID = retailerID;\r\n        newProduce.consumerID = consumerID;\r\n\r\n        items[_upc] = newProduce;\r\n\r\n        uint placeholder; // Block number place holder\r\n        Txblocks memory txBlock;\r\n        txBlock.FTD = placeholder;\r\n        txBlock.DTM = placeholder;\r\n        txBlock.MTR = placeholder;\r\n        txBlock.RTC = placeholder;\r\n        itemsHistory[_upc] = txBlock;\r\n\r\n        // increment  sku\r\n        sku = sku + 1;\r\n\r\n        // Emit the appropriate event\r\n        emit ProduceByFarmer(_upc);\r\n    } \r\n    /*\r\n    2nd step in supplychain\r\n    Allows farmer to sell chocolate\r\n    */\r\n    function sellItemByFarmer(uint _upc, uint _price) public\r\n        onlyFarmer() // check msg.sender belongs to farmerRole\r\n        producedByFarmer(_upc) // check items state has been produced\r\n        verifyCaller(items[_upc].ownerID) // check msg.sender is owner\r\n        {\r\n        items[_upc].itemState = State.ForSaleByFarmer;\r\n        items[_upc].productPrice = _price;\r\n        emit ForSaleByFarmer(_upc);\r\n        }\r\n    /*\r\n    3rd step in supplychain\r\n    Allows distributor to purchase chocolate\r\n    */    \r\n    function purchaseItemByDistributor(uint _upc) public payable\r\n        onlyDistributor() // check msg.sender belongs to distributorRole\r\n        forSaleByFarmer(_upc) // check items state is for ForSaleByFarmer\r\n        paidEnough(items[_upc].productPrice) // check if distributor sent enough Ether for chocolate\r\n        checkValue(_upc, msg.sender) // check if overpayed return remaing funds back to msg.sender\r\n        {\r\n        address payable ownerAddressPayable = _make_payable(items[_upc].originFarmerID); // make originFarmID payable\r\n        ownerAddressPayable.transfer(items[_upc].productPrice); // transfer funds from distributor to farmer\r\n        items[_upc].ownerID = msg.sender; // update owner\r\n        items[_upc].distributorID = msg.sender; // update distributor\r\n        items[_upc].itemState = State.PurchasedByDistributor; // update state\r\n        itemsHistory[_upc].FTD = block.number; // add block number\r\n        emit PurchasedByDistributor(_upc);\r\n    }\r\n    /*\r\n    4th step in supplychain\r\n    Allows farmer to ship chocolate purchased by distributor\r\n    */\r\n    function shippedItemByFarmer(uint _upc) public payable\r\n        onlyFarmer() // check msg.sender belongs to Farmer\r\n        purchasedByDistributor(_upc)\r\n        verifyCaller(items[_upc].originFarmerID) // check msg.sender is originFarmID\r\n        {\r\n        items[_upc].itemState = State.ShippedByFarmer; // update state\r\n        emit ShippedByFarmer(_upc);\r\n    }\r\n    /*\r\n    5th step in supplychain\r\n    Allows distributor to receive chocolate\r\n    */\r\n    function receivedItemByDistributor(uint _upc) public\r\n        onlyDistributor() // check msg.sender belongs to DistributorRole\r\n        shippedByFarmer(_upc)\r\n        verifyCaller(items[_upc].ownerID) // check msg.sender is owner\r\n        {\r\n        items[_upc].itemState = State.ReceivedByDistributor; // update state\r\n        emit ReceivedByDistributor(_upc);\r\n    }\r\n    /*\r\n    6th step in supplychain\r\n    Allows distributor to process chocolate\r\n    */\r\n    function processedItemByDistributor(uint _upc) public\r\n        onlyDistributor() // check msg.sender belongs to DistributorRole\r\n        receivedByDistributor(_upc)\r\n        verifyCaller(items[_upc].ownerID) // check msg.sender is owner\r\n        {\r\n        items[_upc].itemState = State.ProcessedByDistributor; // update state\r\n        emit ProcessedByDistributor(_upc);\r\n    }\r\n    /*\r\n    7th step in supplychain\r\n    Allows distributor to package chocolate\r\n    */\r\n    function packageItemByDistributor(uint _upc) public\r\n        onlyDistributor() // check msg.sender belongs to DistributorRole\r\n        processByDistributor(_upc)\r\n        verifyCaller(items[_upc].ownerID) // check msg.sender is owner\r\n        {\r\n        items[_upc].itemState = State.PackageByDistributor;\r\n        emit PackageByDistributor(_upc);\r\n    }\r\n    /*\r\n    8th step in supplychain\r\n    Allows distributor to sell chocolate\r\n    */\r\n    function sellItemByDistributor(uint _upc, uint _price) public\r\n        onlyDistributor() // check msg.sender belongs to DistributorRole\r\n        packagedByDistributor(_upc)\r\n        verifyCaller(items[_upc].ownerID) // check msg.sender is owner\r\n        {\r\n            items[_upc].itemState = State.ForSaleByDistributor;\r\n            items[_upc].productPrice = _price;\r\n            emit ForSaleByDistributor(upc);\r\n    }\r\n    /*\r\n    9th step in supplychain\r\n    Allows manufacturer to purchase chocolate\r\n    */\r\n    function purchaseItemByManufacturer(uint _upc) public payable\r\n        onlyManufacturer() // check msg.sender belongs to ManufacturerRole\r\n        forSaleByDistributor(_upc)\r\n        paidEnough(items[_upc].productPrice)\r\n        checkValue(_upc, msg.sender)\r\n        {\r\n            address payable ownerAddressPayable = _make_payable(items[_upc].manufacturerID);\r\n            ownerAddressPayable.transfer(items[_upc].productPrice);\r\n            items[_upc].ownerID = msg.sender;\r\n            items[_upc].manufacturerID = msg.sender;\r\n            items[_upc].itemState = State.PurchasedByManufacturer;\r\n            itemsHistory[_upc].DTM = block.number;\r\n            emit PurchasedByManufacturer(_upc);\r\n        }\r\n    /*\r\n    10th step in supplychain\r\n    Allows distributor to ship chocolate purchased by manufacturer\r\n    */\r\n    function shippedItemByDistributor(uint _upc) public payable\r\n        onlyDistributor() // check msg.sender belongs to DistributorRole\r\n        purchasedByManufacturer(_upc)\r\n        verifyCaller(items[_upc].ownerID) // check msg.sender is originFarmID\r\n        {\r\n        items[_upc].itemState = State.ShippedByDistributor; // update state\r\n        emit ShippedByDistributor(_upc);\r\n    }\r\n    /*\r\n    11th step in supplychain\r\n    Allows manufacturer to receive chocolate purchased by distributor\r\n    */\r\n    function receivedItemByManufacturer(uint _upc) public\r\n        onlyManufacturer()\r\n        shippedByDistributor(_upc)\r\n        verifyCaller(items[_upc].ownerID) // check msg.sender is ownerID\r\n    {\r\n        items[_upc].itemState = State.ReceivedByManufacturer; // update state\r\n        emit ReceivedByManufacturer(_upc);\r\n    }\r\n    /*\r\n    12th step in supplychain\r\n    Allows manufacturer to process chocolate\r\n    */\r\n    function processedItemByManufacturer(uint _upc) public\r\n        onlyManufacturer() // check msg.sender belongs to ManufacturerRole\r\n        receivedByManufacturer(_upc)\r\n        verifyCaller(items[_upc].ownerID) // check msg.sender is owner\r\n        {\r\n        items[_upc].itemState = State.ProcessedByManufacturer; // update state\r\n        emit ProcessedByManufacturer(_upc);\r\n    }\r\n    /*\r\n    13th step in supplychain\r\n    Allows manufacturer to package chocolate\r\n    */\r\n    function packageItemByManufacturer(uint _upc) public\r\n        onlyManufacturer() // check msg.sender belongs to ManufacturerRole\r\n        processedByManufacturer(_upc)\r\n        verifyCaller(items[_upc].ownerID) // check msg.sender is owner\r\n        {\r\n        items[_upc].itemState = State.PackageByManufacturer;\r\n        emit PackageByManufacturer(_upc);\r\n    }\r\n    /*\r\n    14th step in supplychain\r\n    Allows manufacturer to sell chocolate\r\n    */\r\n    function sellItemByManufacturer(uint _upc, uint _price) public\r\n        onlyManufacturer() // check msg.sender belongs to ManufacturerRole\r\n        packageByManufacturer(_upc)\r\n        verifyCaller(items[_upc].ownerID) // check msg.sender is owner\r\n        {\r\n            items[_upc].itemState = State.ForSaleByManufacturer;\r\n            items[_upc].productPrice = _price;\r\n            emit ForSaleByManufacturer(upc);\r\n    }\r\n    /*\r\n    15th step in supplychain\r\n    Allows retailer to buy chocolate\r\n    */\r\n    function purchaseItemByRetailer(uint _upc) public payable\r\n        onlyRetailer() // check msg.sender belongs to RetailerRole\r\n        forSaleByManufacturer(_upc)\r\n        paidEnough(items[_upc].productPrice)\r\n        checkValue(_upc, msg.sender)\r\n        {\r\n        address payable ownerAddressPayable = _make_payable(items[_upc].distributorID);\r\n        ownerAddressPayable.transfer(items[_upc].productPrice);\r\n        items[_upc].ownerID = msg.sender;\r\n        items[_upc].retailerID = msg.sender;\r\n        items[_upc].itemState = State.PurchasedByRetailer;\r\n        itemsHistory[_upc].MTR = block.number;\r\n        emit PurchasedByRetailer(_upc);\r\n    }\r\n    /*\r\n    16th step in supplychain\r\n    Allows manfacturer to ship chocolate\r\n    */   \r\n    function shippedItemByManufacturer(uint _upc) public payable\r\n        onlyManufacturer() // check msg.sender belongs to DistributorRole\r\n        purchasedByRetailer(_upc)\r\n        verifyCaller(items[_upc].ownerID) // check msg.sender is originFarmID\r\n        {\r\n        items[_upc].itemState = State.ShippedByManufacturer; // update state\r\n        emit ShippedByManufacturer(_upc);\r\n    }\r\n    /*\r\n    17th step in supplychain\r\n    Allows retialer to receive chocolate from manufacturer\r\n    */\r\n    function receivedItemByRetailer(uint _upc) public\r\n        onlyRetailer() // check msg.sender belongs to RetailerRole\r\n        shippedByManufacturer(_upc)\r\n        verifyCaller(items[_upc].ownerID) // check msg.sender is ownerID\r\n        {\r\n        items[_upc].itemState = State.ReceivedByRetailer;\r\n        emit ReceivedByRetailer(_upc);\r\n    }\r\n    /*\r\n    18th step in supplychain\r\n    Allows retailer to sell chocolate\r\n    */\r\n    function sellItemByRetailer(uint _upc, uint _price) public\r\n        onlyRetailer()  // check msg.sender belongs to RetailerRole\r\n        receivedByRetailer(_upc)\r\n        verifyCaller(items[_upc].ownerID) // check msg.sender is ownerID\r\n        {\r\n        items[_upc].itemState = State.ForSaleByRetailer;\r\n        items[_upc].productPrice = _price;\r\n        emit ForSaleByRetailer(_upc);\r\n    }\r\n    /*\r\n    19th step in supplychain\r\n    Allows retailer to sell chocolate\r\n    */  \r\n    function purchaseItemByConsumer(uint _upc) public payable\r\n        onlyConsumer()  // check msg.sender belongs to ConsumerRole\r\n        forSaleByRetailer(_upc)\r\n        paidEnough(items[_upc].productPrice)\r\n        checkValue(_upc, msg.sender)\r\n        {\r\n        items[_upc].consumerID = msg.sender;\r\n        address payable ownerAddressPayable = _make_payable(items[_upc].retailerID);\r\n        ownerAddressPayable.transfer(items[_upc].productPrice);\r\n        items[_upc].ownerID = msg.sender;\r\n        items[_upc].consumerID = msg.sender;\r\n        items[_upc].itemState = State.PurchasedByConsumer;\r\n        itemsHistory[_upc].RTC = block.number;\r\n        emit PurchasedByConsumer(_upc);\r\n    }\r\n\r\n\r\n// Define a function 'fetchItemBufferOne' that fetches the data\r\n  function fetchItemBufferOne(uint _upc) public view returns\r\n    (\r\n    uint    itemSKU,\r\n    uint    itemUPC,\r\n    address ownerID,\r\n    address originFarmerID,\r\n    string memory  originFarmName\r\n    )\r\n    {\r\n    // Assign values to the parameters\r\n    Item memory item = items[_upc];\r\n    return \r\n    (\r\n      item.sku,\r\n      item.upc,\r\n      item.ownerID,\r\n      item.originFarmerID,\r\n      item.originFarmName\r\n    );\r\n    }\r\n\r\n // Define a function 'fetchItemBufferTwo' that fetches the data\r\n    function fetchItemBufferTwo(uint _upc) public view returns (\r\n        uint    itemSKU,\r\n        uint    itemUPC,\r\n        uint    productPrice,\r\n        State   itemState,\r\n        address distributorID,\r\n        address manufacturerID,\r\n        address retailerID,\r\n        address consumerID\r\n    ) {\r\n        // Assign values to the 9 parameters\r\n        Item memory item = items[_upc];\r\n        return (\r\n            item.sku,\r\n            item.upc,\r\n            item.productPrice,\r\n            item.itemState,\r\n            item.distributorID,\r\n            item.manufacturerID,\r\n            item.retailerID,\r\n            item.consumerID\r\n        );\r\n    }\r\n\r\n// Define a function 'fetchItemHistory' that fetches the data\r\n  function fetchitemHistory(uint _upc) public view returns\r\n    (\r\n      uint blockfarmerToDistributor,\r\n      uint blockDistributorToManufacturer,\r\n      uint blockManufacturerToRetailer,\r\n      uint blockRetailerToConsumer\r\n    )\r\n    {\r\n      // Assign value to the parameters\r\n      Txblocks memory txblock = itemsHistory[_upc];\r\n      return\r\n      (\r\n        txblock.FTD,\r\n        txblock.DTM,\r\n        txblock.MTR,\r\n        txblock.RTC\r\n      );\r\n    }\r\n}\r\n",
  "sourcePath": "C:/Users/kampw/OneDrive/Bocconi/2020-2021/Finance With Big Data/Finance-for-big-data/contracts/SupplyChain.sol",
  "compiler": {
    "name": "solc",
    "version": "0.5.16+commit.9c3226ce.Emscripten.clang"
  },
  "schemaVersion": "3.3.2",
  "updatedAt": "2020-12-09T21:04:38.472Z",
  "networkType": "ethereum",
  "devdoc": {
    "methods": {}
  },
  "userdoc": {
    "methods": {}
  }
}